:020000020000FC
:20000000004000B4084089140800683A00000000000000000000000000000000000000005D
:20000800DEFFED04DFC00015D8400215D8800315D8C00415D9000515D9400615D98007156A
:20001000D9C00815000B307ADA000915DA400A15DA800B15DAC00C15DB000D15DB400E15C4
:20001800DB800F15DBC01015D9401115EBFFFF04DBC012150009313A2880004C10000326FA
:200020002000022600200FC000000706DF401215E8BFFF17E93FFF0400201C401000021EA2
:20002800EBFFFF04DBC01215D9401117DF401217DFC000172801707AD8400217D880031714
:20003000D8C00417D9000517D9400617D9800717D9C00817DA000917DA400A17DA800B17F2
:20003800DAC00C17DB000D17DB400E17DB800F17DBC01017DEC01304EF80083ADEFFF90429
:20004000DFC00615DF000515DF0005040001883A0005313AE0BFFC15E0BFFC17E0BFFF15BD
:20004800E03FFD1500800044E0BFFE15E0FFFF17E0BFFE171884703A10001126E0BFFD1708
:20005000100690FA008000B41885883A10D22217E0BFFD17100890FA008000B42085883A52
:20005800109223171009883A183EE83A0001883A0005313AE0BFFB15E0BFFB1700000706B9
:20006000E0BFFE171085883AE0BFFE15E0BFFD1710800044E0BFFD15003FE406E0BFFF15AF
:20006800E0BFFF17103FDE1E0001883A0001883AE037883ADFC00117DF000017DEC00204C8
:20007000F800283ADEFFFB04DFC00415DF000315DF000304E13FFD1500BFFFC4E0BFFF153E
:20007800E03FFE15D0A0CB1710000726D0A0CB17E0FFFF17E1BFFE17E17FFD171809883A54
:20008000103EE83A00000206003DA03A0005883AE037883ADFC00117DF000017DEC00204E0
:20008800F800283A06C00134DEC00014068000B4D6B15614008000B410921A1400C000B4AE
:2000900018D2621410C00326100000151080010410FFFD3600225080002258C0003FFF068B
:20009800DEFFFB04DF000415DF000404E13FFE15E17FFD15E1BFFC15E0BFFD17100490BA26
:2000A0001007883AE0BFFE171885883A1007883AE0BFFC171880003500800044E0BFFFC5D5
:2000A800E0BFFFC3E037883ADF000017DEC00104F800283ADEFFFB04DF000415DF00040450
:2000B000E13FFE15E17FFD15E1BFFC15E0BFFD17100490BA1007883AE0BFFE171885883ADD
:2000B80010C00037E0BFFC1710C0001500800044E0BFFFC5E0BFFFC3E037883ADF00001733
:2000C000DEC00104F800283ADEFFFA04DFC00515DF000415DF000404E13FFC150080BEF44D
:2000C80010BC2004E0BFFF15008001B41086A004E0BFFE15E1BFFE17E17FFF17E13FFC17F6
:2000D00000203600E0BFFDC5E0BFFDC3E037883ADFC00117DF000017DEC00204F800283A76
:2000D800DEFFF704DFC00815DF000715DF000704E13FFB15E17FFA15E1BFF915008000447E
:2000E000E0BFFFC500BFE004E0BFFF85E0FFF9171805883A100490BA10C5883A100B883A37
:2000E800E13FFA1700219B8010BFFFC4E0BFFE15E0BFFE17E0BFFDC5E0BFFE171005D23A5D
:2000F000E0BFFD85E0BFFB17E0FFFDC310C00035E0BFFB17108001041007883AE0BFFD833C
:2000F80018800035E0BFFB17108002041007883AE0BFFF8318800035E0BFFFC3100008266E
:20010000E0BFFB1710800037E0BFFC15E0BFFC1710C03FCCE0BFFDC318800126E03FFFC529
:20010800E0BFFFC310000926E0BFFB171080010410800037E0BFFC15E0BFFC1710C03FCCED
:20011000E0BFFD8318800126E03FFFC5E0BFFFC310000926E0BFFB17108002041080003760
:20011800E0BFFC15E0BFFC1710C03FCCE0BFFF8318800126E03FFFC5E0BFFFC3100004262C
:20012000010000B4210F9B040021D20000000306010000B4210FA1040021D200E0BFFFC361
:20012800E037883ADFC00117DF000017DEC00204F800283ADEFFFB04DFC00415DF000315A8
:20013000DF000304E13FFD1500800044E0BFFFC5E03FFF85E0BFFD17108002041007883AAB
:20013800E0BFFF8318800035E0BFFD171080020410800037E0BFFE15E0BFFE1710C03FCC68
:20014000E0BFFF8318800126E03FFFC5E0BFFFC310000426010000B4210FAC040021D200B9
:2001480000000306010000B4210FB3040021D200E0BFFFC3E037883ADFC00117DF00001718
:20015000DEC00204F800283ADEFFFB04DFC00415DF000315DF000304E13FFD15008000442A
:20015800E0BFFFC501003E8400226080E0BFFD171080040410800037E0BFFE15E0BFFE17E7
:200160001080008C10000126E03FFFC5E0BFFFC310000A2601003E8400226080E0BFFD1730
:200168001080040410800037E0BFFE15E0BFFE171080200C10000126E03FFFC5E0BFFFC37B
:20017000E037883ADFC00117DF000017DEC00204F800283ADEFFFB04DFC00415DF00031560
:20017800DF000304E13FFD15E03FFFC5E03FFE1500000306E13FFD1700205480E0BFFFC5A6
:20018000E0BFFFC31080005C10803FCC10000526E0BFFE1710C00044E0FFFE151080029060
:20018800103FF41EE0BFFFC3E037883ADFC00117DF000017DEC00204F800283ADEFFF90437
:20019000DFC00615DF000515DF000504E13FFE152805883A3007883AE1FFFB15E0BFFD0508
:200198001805883AE0BFFC05E0BFFD03100D883A014000C4E13FFE17002026001080005CDE
:2001A00010803FCC10000526010000B4210FBC040021D2000005883A0000770601802404E4
:2001A80001400104E13FFE17002026001080005C10803FCC10000526010000B4210FC20409
:2001B0000021D2000005883A00006B06E13FFE1700205D401080005C10803FCC1000052650
:2001B800010000B4210FC8040021D2000005883A00006106E0BFFC03100D883A014000C4D3
:2001C000E13FFE17002026001080005C10803FCC10000526010000B4210FCE040021D20038
:2001C8000005883A000054060180040401400104E13FFE17002026001080005C10803FCC25
:2001D00010000526010000B4210FD4040021D2000005883A00004806E13FFE1700205D401D
:2001D8001080005C10803FCC10000526010000B4210FDA040021D2000005883A00003E0684
:2001E000E03FFF1500002A06E0BFFF17E0FFFB171885883A1080000310803FCC100D883A8A
:2001E800014000C4E13FFE17002026001080005C10803FCC10000526010000B4210FE004EC
:2001F0000021D2000005883A00002B060180040401400104E13FFE17002026001080005CCE
:2001F80010803FCC10000526010000B4210FE6040021D2000005883A00001F06E13FFE172E
:2002000000205D401080005C10803FCC10000526010000B4210FEC040021D2000005883AD0
:2002080000001506E0BFFF1710800044E0BFFF15E0FFFF17E080021718BFD31601801004BC
:2002100001400104E13FFE17002026001080005C10803FCC10000526010000B4210FF20470
:200218000021D2000005883A0000030601003E840022608000800044E037883ADFC00117EA
:20022000DF000017DEC00204F800283ADEFFFB04DFC00415DF000315DF000304E13FFD1527
:2002280001003E8400226080E0BFFE04100D883A01400104E13FFD1700202B40E0BFFFC509
:20023000E0BFFFC310000426E0BFFE171080008C10000126E03FFFC5E0BFFFC3E037883AEF
:20023800DFC00117DF000017DEC00204F800283ADEFFF804DFC00715DF000615DF00060484
:20024000E13FFD152805883A3007883AE1FFFA15E0BFFC051805883AE0BFFB05E0BFFD17C4
:20024800108003041007883AE0BFFC0318800035E0BFFD17108004041007883A00802404EF
:2002500018800035E13FFD1700205D401080005C10803FCC10000526010000B4210FF8042D
:200258000021D2000005883A00005806E0BFFD17108003041007883AE0BFFB0318800035E1
:20026000E0BFFD17108004041007883A0080040418800035E13FFD1700205D401080005C28
:2002680010803FCC10000526010000B4210FFE040021D2000005883A00004406E0BFFD1702
:20027000108003041007883AE0BFFC031080005410803FCC18800035E0BFFD1710800404C9
:200278001007883A0080240418800035E13FFD1700205D401080005C10803FCC1000052665
:20028000010000B4211004040021D2000005883A00002E06E03FFF1500002106E0BFFD1775
:20028800108004041009883AE0BFFF1710800044E0C002171880021E00800A040000010654
:200290000080080420800035E13FFD17002088C01080005C10803FCC10000526010000B4DA
:2002980021100A040021D2000005883A00001706E0BFFD171080030410800037E0BFFE156D
:2002A000E0BFFF17E0FFFA171885883AE0FFFE1710C00005E0BFFF1710800044E0BFFF1535
:2002A800E0FFFF17E080021718BFDC16E0BFFD17108004041007883A00801004188000357A
:2002B00001003E840022608000800044E037883ADFC00117DF000017DEC00204F800283A21
:2002B800DEFFFA04DFC00515DF000415DF000404E13FFF152805883A3009883A3807883A94
:2002C000E0BFFE052005883AE0BFFD051805883AE0BFFC05E0BFFF17108003041007883A50
:2002C800E0BFFE0318800035E0BFFF17108004041007883A0080240418800035E13FFF17D8
:2002D00000205D401080005C10803FCC10000526010000B4210FF8040021D2000005883AF4
:2002D80000001E06E0BFFF17108003041007883AE0BFFD0318800035E0BFFF171080040404
:2002E0001007883A0080040418800035E13FFF1700205D401080005C10803FCC100005261B
:2002E800010000B4210FFE040021D2000005883A00000A06E0BFFC0310000726E0BFFF17B5
:2002F000108004041007883A008010041880003501003E840022608000800044E037883ABA
:2002F800DFC00117DF000017DEC00204F800283ADEFFF804DFC00715DF000615DF000604C4
:20030000E13FFD152805883AE1BFFB15E1FFFA15E0BFFC05E0BFFD17108003041007883A5A
:20030800E0BFFC031080005410803FCC18800035E0BFFD17108004041007883A008024041F
:2003100018800035E13FFD1700205D401080005C10803FCC10000526010000B4211004045F
:200318000021D2000005883A00002E06E03FFF1500002106E0BFFD17108004041009883A57
:20032000E0BFFF1710800044E0FFFA171880021E00800A0400000106008008042080003596
:20032800E13FFD17002088C01080005C10803FCC10000526010000B421100A040021D20070
:200330000005883A00001706E0BFFD171080030410800037E0BFFE15E0BFFF17E0FFFB1760
:200338001885883AE0FFFE1710C00005E0BFFF1710800044E0BFFF15E0FFFF17E0BFFA179C
:2003400018BFDC16E0BFFD17108004041007883A008010041880003501003E84002260808A
:2003480000800044E037883ADFC00117DF000017DEC00204F800283ADEFFF804DFC00715B9
:20035000DF000615DF000604E13FFD152805883A3007883AE1FFFA15E0BFFC051805883A22
:20035800E0BFFB0DE0BFFB0B1004D23AE0BFFEC5E0BFFB0BE0BFFE85E0BFFC03100D883A73
:20036000014000C4E13FFD17002026001080005C10803FCC100002260005883A00007D06F5
:200368000180240401400104E13FFD17002026001080005C10803FCC100002260005883A86
:2003700000007406E13FFD1700205D401080005C10803FCC10000526010000B42110100446
:200378000021D2000005883A00006A06E0BFFEC3100D883A014000C4E13FFD17002026007D
:200380001080005C10803FCC100002260005883A000060060180040401400104E13FFD176E
:20038800002026001080005C10803FCC100002260005883A00005706E13FFD1700205D403B
:200390001080005C10803FCC10000526010000B4211016040021D2000005883A00004D067E
:20039800E0BFFE83100D883A014000C4E13FFD17002026001080005C10803FCC1000022608
:2003A0000005883A000043060180040401400104E13FFD1700202600E13FFD1700205D40F3
:2003A8001080005C10803FCC10000526010000B421101C040021D2000005883A0000350678
:2003B000E03FFF1500002406E0BFFF17E0FFFA171885883A1080000310803FCC100D883ABF
:2003B800014000C4E13FFD17002026001080005C10803FCC100002260005883A00002506F5
:2003C0000180040401400104E13FFD17002026001080005C10803FCC100002260005883A4E
:2003C80000001C06E13FFD1700205D401080005C10803FCC10000526010000B42110220434
:2003D0000021D2000005883A00001206E0BFFF1710800044E0BFFF15E0FFFF17E080021791
:2003D80018BFD9160180100401400104E13FFD17002026001080005C10803FCC100002262B
:2003E0000005883A0000030601003E840022608000800044E037883ADFC00117DF0000171E
:2003E800DEC00204F800283ADEFFF704DFC00815DF000715DF000704E13FFC152805883A5E
:2003F0003007883AE1FFF915E0BFFB051805883AE0BFFA0DE0BFFA0B1004D23AE0BFFEC5BC
:2003F800E0BFFA0BE0BFFE85E0BFFB03100D883A014000C4E13FFC17002026001080005C39
:2004000010803FCC100002260005883A00009E060180240401400104E13FFC170020260036
:200408001080005C10803FCC100002260005883A00009506E13FFC1700205D401080005CD7
:2004100010803FCC10000526010000B4211028040021D2000005883A00008B06E0BFFEC339
:20041800100D883A014000C4E13FFC17002026001080005C10803FCC100002260005883AE1
:20042000000081060180040401400104E13FFC17002026001080005C10803FCC100002262E
:200428000005883A00007806E13FFC1700205D401080005C10803FCC10000526010000B408
:2004300021102E040021D2000005883A00006E06E0BFFE83100D883A014000C4E13FFC17E4
:20043800002026001080005C10803FCC100002260005883A0000640601800404014001049F
:20044000E13FFC17002026001080005C10803FCC100002260005883A00005B06E13FFC1709
:2004480000205D401080005C10803FCC10000526010000B4211034040021D2000005883A3D
:2004500000005106E0BFFB031080005410803FCC100D883A014000C4E13FFC1700202600BC
:200458001080005C10803FCC100002260005883A000045060180240401400104E13FFC1791
:20046000002026001080005C10803FCC100002260005883A00003C06E13FFC1700205D407E
:200468001080005C10803FCC10000526010000B421103A040021D2000005883A000032069C
:20047000E03FFF1500002106E0BFFC17108004041009883AE0BFFF1710800044E0C00217AB
:200478001880021E00800A04000001060080080420800035E13FFC17002088C01080005C2F
:2004800010803FCC10000526010000B4211040040021D2000005883A00001B06E0BFFC17CF
:200488001080030410800037E0BFFD15E0BFFF17E0FFF9171885883AE0FFFD1710C000057A
:20049000E0BFFF1710800044E0BFFF15E0FFFF17E080021718BFDC160180100401400104FE
:20049800E13FFC17002026001080005C10803FCC100002260005883A0000030601003E8479
:2004A0000022608000800044E037883ADFC00117DF000017DEC00204F800283ADEFFC10450
:2004A800DFC03E15DF003D15DC003C15DF003D04E03FFD8DE03FFD45E03FC3C5E03FC4052B
:2004B000E03FC445E03FC485E0BFC4C400C03104180D883A000B883A1009883A0021BDC053
:2004B800E03FFD05E03FFCC50080013410844004E0BFFB15018000B431A1A8040140BEF441
:2004C000297C2004E13FFB170021440000809604E0BFFD8DE03FFD45010000F42134AA0420
:2004C80000226080E03FF5C5E0BFF5C401C00044100D883A01401844010000440021538027
:2004D0000104E20400226080E03FFE15E0BFFE1710A000340088003500880137E0BFFA152A
:2004D800E0BFFA1710FFFFEC00AAAAB41880091E0005883A00880135E0BFFA1710BFFFCCC4
:2004E00010C000601800051E108000A01000051E000005060001883A000003060001883A94
:2004E800000001060001883A00906834E0BFF915008FE034E0BFF81500902834E0BFF7156B
:2004F00000803044E0BFF615E0BFF617100490BA14080004E13FF9170021B6C08080003528
:2004F80000803084E0BFF615E0BFF617100490BA14080004E13FF8170021B6C080800035E1
:20050000008030C4E0BFF615E0BFF617100490BA14080004E13FF7170021B6C08080003599
:2005080001000B840021C8800100FA0400226080E0BFFE1710800044E0BFFE15003FC30697
:20051000DEFFF904DFC00615DF000515DF000504E13FFE15E17FFD15E1BFFC15E0FFFC170E
:200518001805883A100490BA10C5883A100B883AE13FFD170021AAC010BFFFC4E0BFFF150E
:20052000E0BFFF17D8800015E1FFFC17E1BFFD17E17FFE17010000B4211046040021C380E9
:20052800E0BFFE17108002040007883A10C00035E0BFFE17108004041007883A00800044B2
:2005300018800035E0BFFE17E0FFFF1718C03FCC10C00035E0BFFE17108001041007883A2B
:20053800E0BFFF171004D23A10803FCC18800035E0BFFE17108002041007883A008020049F
:2005400018800035E0BFFD17E0FFFC17180D883A100B883A01000134210440040020360070
:200548000001883AE037883ADFC00117DF000017DEC00204F800283ADEFFF904DFC00615B8
:20055000DF000515DF0005042005883A2809883AE1BFFC153807883AE0BFFE052005883A95
:20055800E0BFFD051805883AE0BFFB0DE03FFFC5E0BFFE031080005810003D1E000D883AB7
:2005600001401304010001342104400400217300E0BFFD03000D883A100B883A0009883ADA
:2005680000218B800180004401401304010001342104400400217300E03FFFC500001506F9
:20057000000B883A0009883A002180C01009883AE0BFFFC3E0FFFC171885883A2007883AFC
:2005780010C00005E0BFFFC3E0FFFC171885883A1080000310803FCC100B883A010000B41C
:2005800021105E040021C380E0BFFFC310800044E0BFFFC5E0FFFFC3E0BFFB0B18FFFFCCA4
:2005880018BFE736014000440009883A002180C01009883AE0BFFFC3E0FFFC171885883A21
:200590002007883A10C00005E0BFFFC3E0FFFC171885883A1080000310803FCC100B883AD0
:20059800010000B4211062040021C38000002A06E0BFFE031000281E000D883A0140130446
:2005A000010001342104400400217300E03FFFC500000C06E0BFFFC3E0FFFC171885883A61
:2005A8001080000310803FCC000D883A100B883A0009883A00218B80E0BFFFC3108000442D
:2005B000E0BFFFC5E0FFFFC3E0BFFB0B18FFFFCC18BFF036E0BFFFC3E0FFFC171885883AF1
:2005B8001080000310803FCC01800044100B883A0009883A00218B800001883A000D883ACA
:2005C00001401304010001342104400400217300103FFA1EE03FFFC50005883AE037883AA6
:2005C800DFC00117DF000017DEC00204F800283ADEFFFB04DFC00415DF000315DF000304F7
:2005D000E13FFF15E17FFE153005883AE0BFFD05E0BFFD03100F883AE1BFFE17E17FFF1721
:2005D800010000B4211067040021C380E0BFFF17108003041007883AE0BFFE171085883A1E
:2005E0001009883AE0BFFD031080004C2085883A18800035E0BFFF17108004041007883A4B
:2005E80000802404188000350001883AE0BFFF1710800404108000371080008C103FFB1E23
:2005F000E0BFFF1710800404108000371080200C10000526010000B421107B040021D20088
:2005F8000080004400000406010000B421107D040021D2000005883AE037883ADFC0011764
:20060000DF000017DEC00204F800283ADEFFFC04DFC00315DF000215DF0002042005883A90
:200608002807883AE0BFFF051805883AE0BFFE0DE0BFFF03E0FFFE0B180D883A100B883A68
:20061000010000B421107F040021C380E0BFFE0B10000626E0BFFF03108004041007883A07
:2006180000801A041880003500000506E0BFFF03108004041007883A0080080418800035E1
:200620000001883AE0BFFF0310800404108000371080008C103FFB1EE0BFFF03108003043B
:2006280010800037E037883ADFC00117DF000017DEC00204F800283ADEFFFB04DFC00415D3
:20063000DF000315DF0003042005883A2809883A3007883AE0BFFF052005883AE0BFFE05CE
:200638001805883AE0BFFD0DE0BFFF03E0FFFE03E13FFD0B200F883A180D883A100B883ABC
:20064000010000B4211088040021C380E0BFFF03108003041007883AE0BFFE031880003546
:20064800E0BFFD0B10000626E0BFFF03108004041007883A0080140418800035000005062D
:20065000E0BFFF03108004041007883A00800404188000350001883AE0BFFF031080040427
:20065800108000371080008C103FFB1EE0BFFF0310800404108000371080200C1000052640
:20066000010000B421107B040021D2000080004400000406010000B421107D040021D200FA
:200668000005883AE037883ADFC00117DF000017DEC00204F800283A20001A16000F883A06
:200670002800020E014BC83A39C0005C200D883A00C000442900092E0080080400C00044AC
:200678000000010610001226294B883A10BFFFC418C7883A293FFB3618000D260005883AFF
:2006800031400236314DC83A10C4B03A1806D07A280AD07A183FFA1E380001260085C83A3A
:20068800F800283A0109C83A01C00044003FE4060005883A003FF80620001916000F883A9A
:200690002005883A2800010E014BC83A00C000442900092E0180080400C0004400000106E2
:2006980030000D26294B883A31BFFFC418C7883A293FFB36180008261806D07A1140013686
:2006A0001145C83A280AD07A183FFB1E380001260085C83AF800283A2005883A003FFB068F
:2006A8000109C83A01C00044003FE506200D883A2900152E280014160080080400C00044BA
:2006B0000000020610000E2628000516294B883A10BFFFC418C7883A293FFA361800082654
:2006B8000005883A31400236314DC83A10C4B03A1806D07A280AD07A183FFA1EF800283AC7
:2006C0000005883AF800283A00C00044003FF4062005883A2900132E28001216018008048E
:2006C80000C000440000020630000C2628000516294B883A31BFFFC418C7883A293FFA363F
:2006D000180006261806D07A114001361145C83A280AD07A183FFB1EF800283A2005883A51
:2006D800F800283A00C00044003FF606200AD5FA00C0203418FFFFC429403FCC29801FD076
:2006E000200ED7FA1906703A3000061E288027901000061E00A0003410BFFFC43885883A66
:2006E800F800283A0005883AF800283A2880259018C020341000051E28BFDA841884983A08
:2006F000383FF9260085C83AF800283A008025841145C83A1884D83A003FF9062005883A1F
:2006F800218D883A2007883A1980011EF800283A18C00044197FFFC5003FFB06DEFFFD04E1
:20070000DFC00015D9800115D9C002152180021700C000B418C8B70430C00115280D883A40
:2007080021400217D9C001040021DB80DFC00017DEC00304F800283ADEFFFC04DFC00015F7
:20071000D9400115D9800215D9C00315008000B410D15717008000B41088B70419400217FD
:20071800D980010428800115200B883A1900021700222C40DFC00017DEC00404F800283A42
:200720002180021700223D41008000B410915717200B883A118002171009883A00223D410A
:20072800DEFFFD04DC0000152021883A2809883ADFC00215DC4001152823883A0021D30003
:200730008140021700C000B418C8B70428C00115100F883A880D883A8009883A00222DC030
:2007380010FFFFE01800091E81400217018000B401C0004428800117319096048009883AFA
:20074000103EE83A10BFFFE00085C83ADFC00217DC400117DC000017DEC00304F800283A16
:20074800008000B4200B883A111157170021CA012005883A10C000071800021E1105C83AE6
:20075000F800283A10800044003FFA06DEFFFB04DC800315DC400215DC000115DFC00415EF
:200758002025883A2823883AD98000053821883A040007160005883ADFC00417DC800317DC
:20076000DC400217DC000117DEC00504F800283A8880011701C00044D80D883A880B883A2E
:200768009009883A103EE83A843FFFC4103FF02600BFFFC4003FF006DEFFE604DF00181531
:20077000DDC01715DD801615DD001415DCC01315DC801215DC401115DC001015DFC01915BB
:20077800DD4015152021883A282F883AD98005153839883A002D883AD80002150027883A91
:200780000029883A0025883A0023883AD8000115D80000150005883A00000206114000E0C7
:2007880028003F1ED8C005171900000318C00044D8C0051521803FCC3180201C31BFE004C1
:2007900030001426114000A02800231E114000C8283FF21E100004261080006010001A1E83
:2007980000800084003FEF06318009603000FE1EB8800117D900080501C00044D980080403
:2007A000B80B883A8009883A103EE83A10001D2605BFFFC4B005883ADFC01917DF001817CB
:2007A800DDC01717DD801617DD401517DD001417DCC01317DC801217DC401117DC001017F9
:2007B000DEC01A04F800283A30800C201000EF1E30800958103FE626217FF40429403FCCA2
:2007B800288002A810000B1E88BFFFE01000071E880490BA1463883A8822907A2C63883A27
:2007C000003FD706B5800044003FC6060023883A003FFA0630800BA01000E11E00800084E7
:2007C800213FF40421003FCC214002A82800091E917FFFE02800051E900A90BA2CA5883A82
:2007D0009024907A24A5883A003FB6060025883A003FFC0630801B201000CF1E90BFFFE087
:2007D80010000F1ED800001530801BE01000CE1E30801C081000171E308018E01000A31E9E
:2007E000308019081000081E31801620303FA12600800044D8800215050004040000C306CC
:2007E80004800044003FF006308019201000021E31801A60303F9726E0800104D8800415AE
:2007F0009800BA26E5400017A800221604C000440000BA0630801D601000B41E30801E2090
:2007F800103FED1E31801CE0303F8A26E5400017E0800104D8800315A809883A0021D30043
:20080000888FC83A1039883A01C0080E01800804B80B883A8009883AD9C004150021D4C019
:20080800103F9B1ED9C00417B1ED883AB8800117E00F883AA80D883AB80B883A8009883A6C
:20081000103EE83A103F921EB72D883ADF000317003F7406056BC83A04C0004400C0004483
:20081800DF000804E00D883AA8002E1EE185C83AD88003159085C83A0080090EE085883A85
:20082000D9001004E100042EE700004401000C04E13FFFC5E0BFFA1EE185C83AD880031509
:20082800D88003171897883AD88000178AEBC83A1000352618000A2600800B44D88007C541
:20083000B880011701C00044D98007C4B80B883A8009883A103EE83A103F6D1EB58000449C
:200838000540070EA80F883A01800C04B80B883A8009883A0021D4C0103F651EB56D883A01
:20084000D8800317B72D883A172BC83AAF05883AB707C83A00803216DF000417182D883A3D
:20084800003F3C06A809883AA00B883AD8C006150021AAC01009883AA00B883AD880031539
:2008500000224780A8ABC83AA8800288D9000317D8C00617D98008041000051EAD400C045B
:20085800E7000044E57FFFC5202B883A003FBE06D880021710000226AD400DC4003FF80679
:20086000AD4015C4003FF6060540090EA80F883A01800804B80B883A8009883AD8C0061592
:200868000021D4C0103F3A1ED8C00617B56D883A183FD32600800B44D88007C5B8800117E8
:2008700001C00044D98007C4B80B883A8009883A103EE83A103F2E1EB5800044003FC806DE
:20087800E0BFFFC301C00044D98007C4D88007C5B8800117B80B883A8009883AE73FFFC4A9
:20088000103EE83A103FC126003F2106888000901000081E8D7FFFC4A80F883A01800804A9
:20088800B80B883A8009883A0021D4C0103F181EB56D883AE080001701C00044D980080481
:20089000D8800805B8800117B80B883A8009883AE5400104103EE83A103F0D1EB580004436
:20089800A839883A003EEF06D8000215D8000115D800001504C000440500028404BFFFC487
:2008A000047FFFC400800044003EE60600800044D8800015003EF20600800044D88001156B
:2008A800008000C4003EDF0605000204E0800104D8800415E54000170027883A0007883AFA
:2008B000003F6706008000B4300F883A280D883A200B883A111157170021DB812880000BA3
:2008B8001080020C100025262880008FDEFFFB04DCC00315DC800215DC400115DC000015CA
:2008C000DFC004152027883A2821883A3025883A3823883A1000100E8080000B108010142B
:2008C8008080000D00BFFFC400000D0688810050880F883A1000011E01C100048140008F77
:2008D000900D883A9809883A0022428000BFF20E88A3C83A90A5883A047FF4160005883A2B
:2008D800DFC00417DCC00317DC800217DC400117DC000017DEC00504F800283A00BFFFC471
:2008E000F800283ADEFFFD04008000B4DC000115DFC002151088B70428800115008000B49F
:2008E800D90000C52021883A1111571701C00044D98000C400222DC010FFFFE01800011E69
:2008F0008005883ADFC00217DC000117DEC00304F800283ADEFFFD04008000B4DC000115F2
:2008F800DFC002151088B70430800115008000B4111157172821883A01C00044300B883A40
:20090000D98000C4DC0000C500222DC010FFFFE01800011E8005883ADFC00217DC000117F2
:20090800DEC00304F800283ADEFFFE04DC000015008000B42021883A2809883A300B883AD9
:20091000380D883ADFC0011510121A150022674010FFFFD81800041E00C000B418D21A1742
:200918001800012680C00015DFC00117DC000017DEC00204F800283A0005883A200007266F
:2009200020C0004C2008D07A180001261145883A294B883A203FFA1EF800283AF800283A61
:20092800DEFFFC04DF000315DF000304E13FFF15E17FFE15E1BFFD15E0FFFE17E0BFFF17F3
:2009300018800C2600000806E0FFFF1718800104E0BFFF15E0BFFE1711000104E13FFE158D
:2009380018C0001710C00015E0FFFE17E0BFFD1718BFF51E0001883AE037883ADF000017A8
:20094000DEC00104F800283ADEFFFE04DFC00115DF000015D839883A018000B431916104E3
:20094800014000B42950A804010000B42111610400224A00018000B431808904014000B455
:2009500029400804010000B42100080400224A00018000B43190A804014000B4294F9B0416
:20095800010000B4210F9B0400224A000022DE800022FE000001883AE037883ADFC001179C
:20096000DF000017DEC00204F800283ADEFFFD04DFC00215DF000115DF0001040009883A4B
:2009680000227AC00001883A00227E80018000B431909704014000B429509704010000B4E1
:2009700021109704002336C00022F180010000B4210BDF040023B880D0A0C517D0E0C617F7
:20097800D120C717200D883A180B883A1009883A002129C0E0BFFF15010000440022D0C02D
:20098000E13FFF170023B9C0DEFFFD04DFC00215DF000115DF000104E13FFF15E13FFF17AE
:200988000022B780E037883ADFC00117DF000017DEC00204F800283ADEFFFE04DFC00115DE
:20099000DF000015D839883AD0A0071710000326D0A00717103EE83A00000106D0A0C4047C
:20099800E037883ADFC00117DF000017DEC00204F800283ADEFFF904DFC00615DF0005152E
:2009A000DF000504E13FFD15E17FFC15E1BFFB15E0BFFD1710000916E0FFFD171805883A48
:2009A8001085883A10C5883A100490BA00C000B418D0F60410C5883A000001060005883A28
:2009B000E0BFFF15E0BFFF1710002126E0BFFF1710800217108000CC10001826E0BFFF17AB
:2009B800108000171080061710001426E0BFFF171080001710800617E0FFFB17180D883AA0
:2009C000E17FFC17E13FFF17103EE83AE0BFFE15E0BFFE171000070E002263801007883A95
:2009C800E0BFFE170085C83A1880001500BFFFC400000C06E0BFFE1700000A0600226380CA
:2009D0001007883A008003441880001500000406002263801007883A00801444188000154D
:2009D80000BFFFC4E037883ADFC00117DF000017DEC00204F800283ADEFFFD04DFC0021565
:2009E000DF000115DF000104E13FFF15D1600404E13FFF170022E700E037883ADFC00117E2
:2009E800DF000017DEC00204F800283ADEFFFD04DFC00215DF000115DF000104E13FFF155A
:2009F000002387C0008000441001703A0001883A0001883AE037883ADFC00117DF000017F2
:2009F800DEC00204F800283ADEFFFE04DFC00115DF000015D839883A01C0FA040180004402
:200A0000000B883A01000134210418040022AF40010000B42110E104002277800001883ADA
:200A08000001883AE037883ADFC00117DF000017DEC00204F800283ADEFFFA04DFC00515F3
:200A1000DF000415DF000404E13FFE15E17FFD15E1BFFC15E0BFFE1710800017E0BFFF1583
:200A1800E0BFFF1710C00A04E0BFFE1710800217100F883AE1BFFC17E17FFD171809883AE3
:200A200000228F80E037883ADFC00117DF000017DEC00204F800283ADEFFFA04DFC005156D
:200A2800DF000415DF000404E13FFE15E17FFD15E1BFFC15E0BFFE1710800017E0BFFF156B
:200A3000E0BFFF1710C00A04E0BFFE1710800217100F883AE1BFFC17E17FFD171809883ACB
:200A380000229E40E037883ADFC00117DF000017DEC00204F800283ADEFFF704DF00081546
:200A4000DF000804E13FFB15E17FFA15E1BFF915E1FFF815E0BFFB1710800017E0BFFE1567
:200A4800E0BFFA17E0BFFF15E0BFF917E0FFFA171885883AE0BFFD1500001206E0BFFE17B0
:200A500010800037E0BFFC15E0BFFC1710A0000C10000626E0BFFF1710C00044E0FFFF15A9
:200A5800E0FFFC1710C0000500000606E0FFFF17E0BFFA171880071EE0BFF8171090000CEF
:200A60001000061EE0FFFF17E0BFFD1718BFEB36000003060001883A000001060001883A0C
:200A6800E0FFFF17E0BFFA1718800426E0FFFF17E0BFFA171885C83A00000606E0BFF81709
:200A70001090000C1000022600BFFD440000010600BFFEC4E037883ADF000017DEC0010488
:200A7800F800283ADEFFF904DF000615DF000604E13FFD15E17FFC15E1BFFB15E1FFFA1505
:200A8000E0BFFD1710800017E0BFFF15E0BFFB17E0FFFC171885883AE0BFFE1500000E0681
:200A8800E0BFFF17108001041080003710BFFFEC10000926E0FFFF17E0BFFC171100004448
:200A9000E13FFC151080000310803FCC1080201C10BFE00418800035E0FFFC17E0BFFE17F5
:200A980018BFEF36E0BFFB17E037883ADF000017DEC00104F800283ADEFFFA04DFC0051531
:200AA000DF000415DF000404E13FFC150007883AE0BFFC1710C00035E0BFFC17108001045F
:200AA800108000370005303AE0BFFD15E0FFFD1700BFFF841884703A1001703AE0BFFD175E
:200AB000E0BFFF1500237740E0BFFF17E0BFFE15E0BFFE171001703A0001883A0001883A3D
:200AB800E037883ADFC00117DF000017DEC00204F800283ADEFFF804DFC00715DF0006150C
:200AC000DF000604E13FFE15E17FFD15E1BFFC15E1FFFB15E0BFFB17E0BFFF15D0A0C91733
:200AC8001000031EE0BFFF17D0A0C915000001060001883AE0BFFE171080010400C001C442
:200AD00010C00035D8000015E1FFFE17018000B4318A9E04E17FFC17E13FFD1700230000C3
:200AD8000001883AE037883ADFC00117DF000017DEC00204F800283ADEFFFA04DFC0051523
:200AE000DF000415DF000404E13FFC1500800244E0BFFE15014003F429509004E13FFE17F4
:200AE80000224780100B883A0100BEF4213C20040021AAC0100B883A01200034213FFFC414
:200AF0000021AAC0100B883AE13FFC170021AAC0E0BFFD15E0BFFD1710002A26E03FFF15C9
:200AF8000000170600A0003410BFFFC410BFFFC4103FFE1E014003F429509004E13FFE17E4
:200B000000224780100B883A0100BEF4213C20040021AAC0100B883A01200034213FFFC4FB
:200B08000021AAC01007883AE0BFFC1710C5C83AE0BFFC15E0BFFF1710800044E0BFFF15F4
:200B1000E0FFFF17E0BFFD1718BFE616014003F429509004E13FFE1700224780100B883A0A
:200B18000100BEF4213C20040021AAC0E17FFC171009883A0022478010BFFFC4103FFE1ECA
:200B200000000D06014003F429509004E13FFE1700224780100B883A0100BEF4213C20042E
:200B28000021AAC0E17FFC171009883A0022478010BFFFC400BFFE160005883AE037883AE6
:200B3000DFC00117DF000017DEC00204F800283ADEFFFE04DFC00115DF000015D839883A9F
:200B3800D0A0071710000326D0A00717103EE83A00000106D0A0C404E037883ADFC0011709
:200B4000DF000017DEC00204F800283ADEFFFB04DFC00415DF000315DF000304E13FFD15FE
:200B4800E0BFFD1710000916E0FFFD171805883A1085883A10C5883A100490BA00C000B419
:200B500018D0F60410C5883A000001060005883AE0BFFF15E0BFFF1710001926E0BFFF17D2
:200B5800108000171080041710000626E0BFFF171080001710800417E13FFF17103EE83A42
:200B6000000001060005883AE0BFFE15E13FFD1700236600E0BFFE171000070E0022CD0070
:200B68001007883AE0BFFE170085C83A1880001500BFFFC4000007060005883A000005064B
:200B70000022CD001007883A008014441880001500BFFFC4E037883ADFC00117DF00001710
:200B7800DEC00204F800283ADEFFFF04DF000015D839883A0001883AE037883ADF00001726
:200B8000DEC00104F800283ADEFFFC04DF000315DF000304E13FFF15E17FFE15E1BFFD1545
:200B8800E0BFFD17E037883ADF000017DEC00104F800283ADEFFFE04DFC00115DF00001546
:200B9000D839883AD0A0071710000326D0A00717103EE83A00000106D0A0C404E037883A95
:200B9800DFC00117DF000017DEC00204F800283ADEFFFA04DFC00515DF000415DF0004041F
:200BA000E13FFD15E17FFC15E0BFFD1710000326E0BFFD17108002171000061E0022E340D1
:200BA8001007883A008005841880001500BFFA8400001406E0BFFD17E0FFFC17E0FFFF15AF
:200BB000E0BFFE15E0BFFE17E0FFFF1710C00115E0BFFF1710C00017E0BFFE1710C00015AF
:200BB800E0BFFF1710800017E0FFFE1710C00115E0BFFF17E0FFFE1710C000150001883A96
:200BC0000005883AE037883ADFC00117DF000017DEC00204F800283ADEFFFD04DFC0021536
:200BC800DF000115DF000104008000B4108F9A04E0BFFF1500000606E0BFFF1710800017A8
:200BD000103EE83AE0BFFF1710BFFF04E0BFFF15E0FFFF17008000B4108F9B0418BFF62EF9
:200BD8000001883A0001883AE037883ADFC00117DF000017DEC00204F800283ADEFFFD0415
:200BE000DFC00215DF000115DF000104008000B4108F9A04E0BFFF1500000606E0BFFF1781
:200BE80010800017103EE83AE0BFFF1710BFFF04E0BFFF15E0FFFF17008000B4108F9B0435
:200BF00018BFF62E0001883A0001883AE037883ADFC00117DF000017DEC00204F800283AE0
:200BF800DEFFFF04DF000015D839883A0001883AE037883ADF000017DEC00104F800283AA7
:200C0000DEFFF904DFC00615DF000515DF000504E13FFF15E17FFE15E1BFFD15E1FFFC1515
:200C0800E0800217D8800015E1FFFC17E1BFFD17E17FFE17E13FFF1700231B00E037883A7D
:200C1000DFC00117DF000017DEC00204F800283ADEFFF904DF000615DF000604E13FFB152C
:200C1800E17FFA15E0BFFA17E0BFFF150005303AE0BFFE15E0FFFE1700BFFF841884703A4D
:200C20001001703AE0BFFE17E0BFFD1500C00044E0BFFF171884983A1007883AD0A0C81745
:200C28001884B03AD0A0C815D0A0C817100170FAE0BFFD17E0BFFC15E0BFFC171001703A3F
:200C30000001883A0005883AE037883ADF000017DEC00104F800283ADEFFF904DF0006157A
:200C3800DF000604E13FFB15E17FFA15E0BFFA17E0BFFF150005303AE0BFFE15E0FFFE179C
:200C400000BFFF841884703A1001703AE0BFFE17E0BFFD1500C00044E0BFFF171884983AC5
:200C48000084303A1007883AD0A0C8171884703AD0A0C815D0A0C817100170FAE0BFFD1766
:200C5000E0BFFC15E0BFFC171001703A0001883A0005883AE037883ADF000017DEC001046B
:200C5800F800283ADEFFFC04DF000315DF000304E13FFE15E17FFD15000530FAE0BFFF15E1
:200C600000C00044E0BFFD171884983A1007883AE0BFFF171884703A1004C03A10803FCCD2
:200C6800E037883ADF000017DEC00104F800283ADEFFF504DFC00A15DF000915DF00090423
:200C7000E13FFA15E17FF915E1BFF815E1FFF71500BFFA84E0BFFF15E0BFF917E0BFFE15DD
:200C7800E0BFFE17108008081000251E0005303AE0BFFC15E0FFFC1700BFFF841884703A1C
:200C80001001703AE0BFFC17E0BFFD15E0BFFE17100890FAE0FFF817008000B42085883A57
:200C880010D22215E0BFFE17100890FAE0FFF717008000B42085883A10D22315E0BFF8178D
:200C900010000526E0BFFE17100B883AE13FFA170023050000000406E0BFFE17100B883A84
:200C9800E13FFA1700230D80E0BFFF15E0BFFD17E0BFFB15E0BFFB171001703A0001883A17
:200CA000E0BFFF17E037883ADFC00117DF000017DEC00204F800283ADEFFF904DFC0061567
:200CA800DF000515DF000504E13FFE15E17FFD15E1BFFC15E1FFFB15E1BFFB17E17FFC17E0
:200CB000E13FFD1700235000E0BFFF15E0BFFF1710002016E0FFFF171805883A1085883AA4
:200CB80010C5883A100490BA00C000B410C7883A18D0F617E0BFFE1710C00015E0FFFF1797
:200CC0001805883A1085883A10C5883A100490BA00C000B410C7883A18D0F717E0BFFE1732
:200CC80010C00115E0FFFF171805883A1085883A10C5883A100490BA00C000B410C7883AF9
:200CD00018D0F817E0BFFE1710C00215E13FFF17002366000001883AE037883ADFC0011760
:200CD800DF000017DEC00204F800283ADEFFFB04DFC00415DF000315DF000304E13FFF1563
:200CE000E17FFE15E1BFFD1501C07FC401800044E17FFF17010000B42110F90400232980E1
:200CE80001C07FC4000D883AE17FFE17010000B42110F6040023298001C07FC4018000442F
:200CF000E17FFD17010000B42110FC04002329800001883AE037883ADFC00117DF00001775
:200CF800DEC00204F800283ADEFFFE04DFC00115DF000015D839883AD0A0071710000326BC
:200D0000D0A00717103EE83A00000106D0A0C404E037883ADFC00117DF000017DEC002046C
:200D0800F800283ADEFFFD04DF000215DF000204E13FFE15E0BFFE171080021710D0003414
:200D1000E0BFFE1710C00215E03FFF1500002306E0FFFF171805883A1085883A10C5883A0A
:200D1800100490BA00C000B410C7883A18D0F617E0BFFE17108000171880151EE0FFFF1740
:200D20001805883A1085883A10C5883A100490BA00C000B410C7883A1890F81710000C0E9A
:200D2800E0FFFF171805883A1085883A10C5883A100490BA00C000B418D0F60410C5883A9E
:200D3000E0FFFE171880022600BFFCC400000806E0BFFF1710800044E0BFFF15D0A0061799
:200D38001007883AE0BFFF1718BFD92E0005883AE037883ADF000017DEC00104F800283A9C
:200D4000DEFFF604DFC00915DF000815DF000804E13FFA15E17FF915E1BFF81500BFFFC44C
:200D4800E0BFFE1500BFFB44E0BFFD15E03FFC15D1600404E13FFA1700238A00E0BFFF1530
:200D5000E0BFFF171000051EE13FFA1700239300E0BFFF1500800044E0BFFC15E0BFFF17D8
:200D580010002C26E13FFF170023A380E0BFFE15E0BFFE171000030EE0BFFE17E0BFFD15B1
:200D600000002606E0FFFE171805883A1085883A10C5883A100490BA00C000B418D0F604D2
:200D680010C5883AE0BFFB15E0FFF9170090003410BFFFC41886703AE0BFFB1710C0021500
:200D7000E0BFFC171000051EE13FFB1700234240E0BFFD15E0BFFD1710001016E0BFFF1758
:200D78001080031710000826E0BFFF1710800317E1FFF817E1BFF917E17FFA17E13FFB17D2
:200D8000103EE83A000001060005883AE0BFFD150000020600BFFB44E0BFFD15E0BFFD17FA
:200D88001000090EE13FFE170023660000233E801007883AE0BFFD170085C83A18800015C5
:200D900000BFFFC400000106E0BFFE17E037883ADFC00117DF000017DEC00204F800283A82
:200D9800DEFFFE04DF000115DF000104E13FFF15E0BFFF17108000D01000101EE0FFFF1707
:200DA0001805883A1085883A10C5883A100490BA00C000B410C7883A1810F815E0FFFF17D1
:200DA8001805883A1085883A10C5883A100490BA00C000B410C7883A1810F6150001883AFD
:200DB000E037883ADF000017DEC00104F800283ADEFFFA04DF000515DF000504E13FFB156B
:200DB8000005303AE0BFFC15E0FFFC1700BFFF841884703A1001703AE0BFFC17E0BFFF1562
:200DC000E0BFFB17E0BFFD15E0BFFD1710800017E0FFFD1718C0011710C00115E0BFFD17DB
:200DC80010800117E0FFFD1718C0001710C00015E0BFFD17E0FFFD1710C00115E0BFFD175D
:200DD000E0FFFD1710C000150001883AE0BFFF17E0BFFE15E0BFFE171001703A0001883ACF
:200DD8000001883AE037883ADF000017DEC00104F800283ADEFFFB04DFC00415DF000315E1
:200DE000DF000304D0A00917E0BFFF15D0A0CA1710800044D0A0CA1500002E06E0BFFF176D
:200DE80010800017E0BFFE15E0BFFF171080040310803FCC10000426D0A0CA171000021EF0
:200DF000E0BFFF1710000405E0BFFF1710800217D0E0CA1718801D36E0BFFF1710800403EF
:200DF80010803FCC1000191EE0BFFF1710800317E0FFFF1718C005171809883A103EE83A5E
:200E0000E0BFFD15E0BFFD171000031EE13FFF1700236D0000000D06E0BFFF1710C00217C6
:200E0800E0BFFD171887883AE0BFFF1710C00215E0BFFF1710C00217D0A0CA171880032E62
:200E1000E0BFFF1700C0004410C00405E0BFFE17E0BFFF15E0FFFF17D0A0090418BFCF1E93
:200E18000001883A0001883AE037883ADFC00117DF000017DEC00204F800283ADEFFFF04D0
:200E2000DF000015D839883A000170FA0001883AE037883ADF000017DEC00104F800283AF1
:200E2800DEFFFA04DFC00515DF000415DF000404E13FFD15E17FFC15E0BFFC17108000173B
:200E3000E0BFFF15E13FFD170021D30010800044E0BFFE1500000D06E0BFFF1710800217D0
:200E3800E0FFFE17180D883AE17FFD171009883A0023BBC01000021EE0BFFF1700000706E0
:200E4000E0BFFF1710800017E0BFFF15E0FFFF17E0BFFC1718BFF01E0005883AE037883A57
:200E4800DFC00117DF000017DEC00204F800283ADEFFFB04DFC00415DF000315DF0003046E
:200E5000E13FFD15D0A00217E0BFFF1500003106E0BFFF17108002171009883A0021D300B0
:200E5800E0BFFE15E0BFFF1710C00217E0BFFE1710BFFFC41885883A1080000310803FCC57
:200E60001080201C10BFE00410800BD81000031EE0BFFE1710BFFFC4E0BFFE15E0BFFE17A3
:200E6800E0FFFD171885883A1080000310803FCC1080201C10BFE00410800BE01000081EBA
:200E7000E0BFFE17E0FFFD171885883A1080000310803FCC1080201C10BFE00410000A1E77
:200E7800E0BFFF1710800217E0FFFE17180D883AE17FFD171009883A0023BBC01000021E04
:200E8000E0BFFF1700000706E0BFFF1710800017E0BFFF15E0FFFF17D0A0020418BFCC1E55
:200E88000005883AE037883ADFC00117DF000017DEC00204F800283ADEFFFC04DF0003152B
:200E9000DF000304E13FFD1500BFFA04E0BFFE15E03FFF1500001D06E0FFFF171805883A91
:200E98001085883A10C5883A100490BA00C000B410C7883A1890F6171000111EE0FFFF17F8
:200EA0001805883A1085883A10C5883A100490BAE13FFD1700C000B410C7883A1910F61592
:200EA800D0E00617E0BFFF171880020EE0BFFF17D0A00615E0BFFF17E0BFFE15000007064C
:200EB000E0BFFF1710800044E0BFFF15E0BFFF1710800810103FE01E0001883AE0BFFE17C5
:200EB800E037883ADF000017DEC00104F800283ADEFFFE04DF000115DF000104E13FFF1562
:200EC000E0BFFF1710BFFE8410C004281800191E100690BA008000B41885883A108EC91750
:200EC8001000683A00023B6400023B6400023B7400023B7400023B7400023B6400023B6CB9
:200ED00000023B7400023B6400023B6400023B7400023B6400023B6C00023B7400023B74B2
:200ED80000023B6400800044000003060005883A000001060005883AE037883ADF00001728
:200EE000DEC00104F800283A200B883A000F883A000D883A0009883A0023BEC1DEFFFE041C
:200EE800000B883ADC000015DFC001152021883A0023D0808009883A0023E3400007883AA7
:200EF00030C0021E0005883AF800283A20C5883A18C0004428CF883A1080000339FFFFC3A8
:200EF80011FFF72611C5C83AF800283A008000B410915617DEFFF904DC00001514000D1736
:200F0000DD400515DD000415DCC00315DC800215DFC00615DC4001152025883A2827883A79
:200F0800302B883A3829883A8000081E14000E0400C0003414000D1518C000041800032676
:200F100000C0003418C0001710C03015844001178880081010000A1E00BFFFC4DFC0061757
:200F1800DD400517DD000417DCC00317DC800217DC400117DC000017DEC00704F800283A33
:200F200090001926808022171000091E0080003410800004103FF02601004204000000007E
:200F2800103FED26100040151000411580802215880890BA00C000441C46983A1109883A57
:200F300025400015114040179480009828CAB03A11404015250020159000031E11004117DD
:200F380020C6B03A10C04115888000448C400084882290BA808001150005883A8461883A8F
:200F400084C00015003FD506DEFFF604008000B4DD80061515915617DD400515DD0004155B
:200F4800DFC00915DF000815DDC00715DCC00315DC800215DC400115DC000015202B883AC0
:200F50002829883AB4400D17880007268C0001178CC0221784BFFFC4802090BA9C2F883AFB
:200F58008C21883A90000C0EDFC00917DF000817DDC00717DD800617DD400517DD0004173D
:200F6000DCC00317DC800217DC400117DC000017DEC00A04F800283AA00007269800041E92
:200F680094BFFFC4BDFFFF04843FFF04003FED06B8C01F171D3FFA1E8900011780C0011781
:200F7000213FFFC424800F1E8C800115183FF4268F0001179800052600800044148C983A3A
:200F7800990040173108703A2000081E183EE83A89000117B0C00D17273FD21E88FFE826A8
:200F8000003FD00680000115003FF00699404117B93FFF17314C703A3000041E200B883ACC
:200F8800A809883A183EE83A003FF106183EE83A003FEF06DEFFFD04DF000215DF000204C3
:200F9000E13FFE150001883AE0BFFE17E0BFFF15E0BFFF1710000226002AF0700000010666
:200F9800002AF0B00001883A003FFF064332490A726F632073692065616E652064656C62F0
:200FA000000D20214332490A726F632073692065746F6E20616E652064656C62637573208F
:200FA800737365636C6C75660D202179000000004332490A726F6320692020656964207367
:200FB0006C626173202164650000000D4332490A726F632073692065696166202064656C36
:200FB80064206F74626173692021656C0000000D495F434F575F4332657469727272652072
:200FC000305B726F00000D5D495F434F575F43326574697272726520315B726F00000D5DE2
:200FC800495F434F575F43326574697272726520325B726F00000D5D495F434F575F43324A
:200FD0006574697272726520335B726F00000D5D495F434F575F4332657469727272652089
:200FD800345B726F00000D5D495F434F575F43326574697272726520355B726F00000D5DC2
:200FE000495F434F575F43326574697272726520365B726F00000D5D495F434F575F43322E
:200FE8006574697272726520375B726F00000D5D495F434F575F433265746972727265206D
:200FF000385B726F00000D5D495F434F575F43326574697272726520395B726F00000D5DA2
:200FF800495F434F525F4332206461656F7272655D325B720000000D495F434F525F4332AE
:20100000206461656F7272655D355B720000000D495F434F525F4332206461656F72726500
:201008005D385B720000000D495F434F525F4332206461656F72726530315B7200000D5D5F
:20101000495F434F5F4C433274697257726520655B726F72000D5D30495F434F5F4C4332C2
:2010180074697257726520655B726F72000D5D31495F434F5F4C4332746972577265206511
:201020005B726F72000D5D32495F434F5F4C433274697257726520655B726F72000D5D33BF
:20102800495F434F5F4C43326461655272726520305B726F00000D5D495F434F5F4C433239
:201030006461655272726520315B726F00000D5D495F434F5F4C43326461655272726520A5
:20103800325B726F00000D5D495F434F5F4C43326461655272726520335B726F00000D5DA8
:20104000495F434F5F4C43326461655272726520345B726F00000D5D696E49206C6169748D
:201048006E697A69492020676120433278302074202C78256977090A632068746B636F6CC8
:201050006570732030206465207825786E61090A435320647073204C2064656578257830EC
:2010580061090A207020646E6373657220656C61782578300000000A736E6109207265777B
:201060007830203D000A78257365720973616C5F203D2074782578300000000A617453204A
:201068002020747220433249302074612C78257877090A20206874697264646120737365E9
:201070007825783061090A207220646E206461657825783061090A207020646E63736572F1
:2010780020656C61782578300000000A414F4E0900004B434B434109000000006165522032
:201080003249206474612043257830200A202C7874697709616C206878307473000A782576
:20108800616552203249206474612043257830200A202C787469770961642068302061744F
:201090002C7825786977090A6C206874307473610A782578000000000000000A7665642F95
:201098006F696E2F79735F736D65747361746A5F61755F67000074727665642F6F696E2F49
:2010A00079735F736D65747361746A5F61755F67000074727665642F6C756E2F0000006C41
:2010A800000000000000000000000000000000000000000000000000000000000000000028
:2010B000000000000000000000000000000000000000000000000000000000000000000020
:2010B800000000000000000000000000000000000000000000000000000000000000000018
:2010C000000000000000000000000000000000000000000000000000000000000000000010
:2010C800000000000000000000000000000000000000000000000000000000000000000008
:2010D000000000000000000000000000000000000000000000000000000000000000000000
:2010D8000000000000000000000000000000000000000000000000000000000000000000F8
:2010E0000000000000000000000000000000000000000000000000000000000000000000F0
:2010E8000000000000000000000000000000000000000000000000000000000000000000E8
:2010F0000000000000000000000000000000000000000000000000000000000000000000E0
:2010F8000000000000000000000000000000000000000000000000000000000000000000D8
:201100000000000000000000000000000000000000000000000000000000000000000000CF
:201108000000000000000000000000000000000000000000000000000000000000000000C7
:201110000000000000000000000000000000000000000000000000000000000000000000BF
:201118000000000000000000000000000000000000000000000000000000000000000000B7
:201120000000000000000000000000000000000000000000000000000000000000000000AF
:201128000000000000000000000000000000000000000000000000000000000000000000A7
:2011300000000000000000000000000000000000000000000000000000000000000000009F
:20113800000000000000000000000000000000000000000000000000000000000000000097
:2011400000000000000000000000000000000000000000000000000000000000000000008F
:20114800000000000000000000000000000000000000000000000000000000000000000087
:2011500000000000000000000000000000000000000000000000000000000000000000007F
:20115800000000000000000000000000000000000000000000000000000000000000000077
:201160000000000000000000000243640002436C000243740000000000000000000000005C
:20116800000000000000000000000000000000000000000000000000000000000000000067
:2011700000000000000000000000000000000000000000000000000000000000000000005F
:20117800000000000000000000000000000000000000000000000000000000000000000057
:2011800000000000000000000000000000000000000000000000000000000000000000004F
:20118800000000000000000000000000000000000000000000000000000000000000000047
:20119000000000000000000000000004000000000001000A000000000002000A0000000024
:20119800000000000000000000000000000000000002427800000000000000000002283819
:2011A00000022898000000000000000000000000000410B80002456800024568000242946B
:2011A80000000000000000000000000000022E08000000000000000000000000000243B0FA
:2011B0000000000000000000000243B00000000000000000000243B0000000000000000035
:2011B800000000000000000000000000000000000000000000000000000000000000000017
:2011C00000000000000000000000000000000000000000000000000000000000000000000F
:2011C800000000000000000000000000000000000000000000000000000000000000000007
:2011D0000000000000000000000000000000000000000000000000000000000000000000FF
:2011D8000000000000000000000000000000000000000000000000000000000000000000F7
:2011E0000000000000000000000000000000000000000000000000000000000000000000EF
:2011E8000000000000000000000000000000000000000000000000000000000000000000E7
:2011F0000000000000000000000000000000000000000000000000000000000000000000DF
:2011F8000000000000000000000000000000000000000000000000000000000000000000D7
:201200000000000000000000000000000000000000000000000000000000000000000000CE
:2012080000000000000000000000000000000000000000000000000000000000000242A0E2
:20121000000242A00002456000024560000243B0000243B0FFFFFFFF00000000FFFFFFFFAA
:201218000002457C0002457C00000000000000000000000000000000000000000000000030
:201220000000000000000000000000000000000000000000000000000000000000000000AE
:201228000000000000000000000000000000000000000000000000000000000000000000A6
:2012300000000000000000000000000000000000000000000000000000000000000000009E
:20123800000000000000000000000000000000000000000000000000000000000000000096
:00000001FF
