:020000020000FC
:20000000004000B4084089140800683A00000000000000000000000000000000000000005D
:20000800DEFFED04DFC00015D8400215D8800315D8C00415D9000515D9400615D98007156A
:20001000D9C00815000B307ADA000915DA400A15DA800B15DAC00C15DB000D15DB400E15C4
:20001800DB800F15DBC01015D9401115EBFFFF04DBC012150009313A2880004C10000326FA
:200020002000022600200FC000000706DF401215E8BFFF17E93FFF0400201C401000021EA2
:20002800EBFFFF04DBC01215D9401117DF401217DFC000172801707AD8400217D880031714
:20003000D8C00417D9000517D9400617D9800717D9C00817DA000917DA400A17DA800B17F2
:20003800DAC00C17DB000D17DB400E17DB800F17DBC01017DEC01304EF80083ADEFFF90429
:20004000DFC00615DF000515DF0005040001883A0005313AE0BFFC15E0BFFC17E0BFFF15BD
:20004800E03FFD1500800044E0BFFE15E0FFFF17E0BFFE171884703A10001126E0BFFD1708
:20005000100690FA008000B41885883A10D1DD17E0BFFD17100890FA008000B42085883A98
:200058001091DE171009883A183EE83A0001883A0005313AE0BFFB15E0BFFB1700000706FF
:20006000E0BFFE171085883AE0BFFE15E0BFFD1710800044E0BFFD15003FE406E0BFFF15AF
:20006800E0BFFF17103FDE1E0001883A0001883AE037883ADFC00117DF000017DEC00204C8
:20007000F800283ADEFFFB04DFC00415DF000315DF000304E13FFD1500BFFFC4E0BFFF153E
:20007800E03FFE15D0A0CB1710000726D0A0CB17E0FFFF17E1BFFE17E17FFD171809883A54
:20008000103EE83A00000206003DA03A0005883AE037883ADFC00117DF000017DEC00204E0
:20008800F800283A06C00134DEC00014068000B4D6B11114008000B41091D51400C000B439
:2000900018D21D1410C00326100000151080010410FFFD3600223BC000224400003FFF0679
:20009800DEFFFB04DF000415DF000404E13FFE15E17FFD15E1BFFC15E0BFFD17100490BA26
:2000A0001007883AE0BFFE171885883A1007883AE0BFFC171880003500800044E0BFFFC5D5
:2000A800E0BFFFC3E037883ADF000017DEC00104F800283ADEFFFB04DF000415DF00040450
:2000B000E13FFE15E17FFD15E1BFFC15E0BFFD17100490BA1007883AE0BFFE171885883ADD
:2000B80010C00037E0BFFC1710C0001500800044E0BFFFC5E0BFFFC3E037883ADF00001733
:2000C000DEC00104F800283ADEFFFA04DFC00515DF000415DF000404E13FFC150080BEF44D
:2000C80010BC2004E0BFFF15008001B41086A004E0BFFE15E1BFFE17E17FFF17E13FFC17F6
:2000D00000203600E0BFFDC5E0BFFDC3E037883ADFC00117DF000017DEC00204F800283A76
:2000D800DEFFF704DFC00815DF000715DF000704E13FFB15E17FFA15E1BFF915008000447E
:2000E000E0BFFFC500BFE004E0BFFF85E0FFF9171805883A100490BA10C5883A100B883A37
:2000E800E13FFA1700219A0010BFFFC4E0BFFE15E0BFFE17E0BFFDC5E0BFFE171005D23ADE
:2000F000E0BFFD85E0BFFB17E0FFFDC310C00035E0BFFB17108001041007883AE0BFFD833C
:2000F80018800035E0BFFB17108002041007883AE0BFFF8318800035E0BFFFC3100008266E
:20010000E0BFFB1710800037E0BFFC15E0BFFC1710C03FCCE0BFFDC318800126E03FFFC529
:20010800E0BFFFC310000926E0BFFB171080010410800037E0BFFC15E0BFFC1710C03FCCED
:20011000E0BFFD8318800126E03FFFC5E0BFFFC310000926E0BFFB17108002041080003760
:20011800E0BFFC15E0BFFC1710C03FCCE0BFFF8318800126E03FFFC5E0BFFFC3100004262C
:20012000010000B4210F48040021C78000000306010000B4210F4E040021C780E0BFFFC31D
:20012800E037883ADFC00117DF000017DEC00204F800283ADEFFFB04DFC00415DF000315A8
:20013000DF000304E13FFD1500800044E0BFFFC5E03FFF85E0BFFD17108002041007883AAB
:20013800E0BFFF8318800035E0BFFD171080020410800037E0BFFE15E0BFFE1710C03FCC68
:20014000E0BFFF8318800126E03FFFC5E0BFFFC310000426010000B4210F59040021C78097
:2001480000000306010000B4210F60040021C780E0BFFFC3E037883ADFC00117DF000017F6
:20015000DEC00204F800283ADEFFFB04DFC00415DF000315DF000304E13FFD15008000442A
:20015800E0BFFFC501003E8400224BC0E0BFFD171080040410800037E0BFFE15E0BFFE17BC
:200160001080008C10000126E03FFFC5E0BFFFC310000A2601003E8400224BC0E0BFFD1705
:200168001080040410800037E0BFFE15E0BFFE171080200C10000126E03FFFC5E0BFFFC37B
:20017000E037883ADFC00117DF000017DEC00204F800283ADEFFFB04DFC00415DF00031560
:20017800DF000304E13FFD15E03FFFC5E03FFE1500000306E13FFD1700205480E0BFFFC5A6
:20018000E0BFFFC31080005C10803FCC10000526E0BFFE1710C00044E0FFFE151080029060
:20018800103FF41EE0BFFFC3E037883ADFC00117DF000017DEC00204F800283ADEFFF90437
:20019000DFC00615DF000515DF000504E13FFE152805883A3007883AE1FFFB15E0BFFD0508
:200198001805883AE0BFFC05E0BFFD03100D883A014000C4E13FFE17002026001080005CDE
:2001A00010803FCC10000526010000B4210F69040021C7800005883A0000770601802404C2
:2001A80001400104E13FFE17002026001080005C10803FCC10000526010000B4210F6F045C
:2001B0000021C7800005883A00006B06E13FFE1700205D401080005C10803FCC10000526DB
:2001B800010000B4210F75040021C7800005883A00006106E0BFFC03100D883A014000C4B1
:2001C000E13FFE17002026001080005C10803FCC10000526010000B4210F7B040021C78016
:2001C8000005883A000054060180040401400104E13FFE17002026001080005C10803FCC25
:2001D00010000526010000B4210F81040021C7800005883A00004806E13FFE1700205D40FB
:2001D8001080005C10803FCC10000526010000B4210F87040021C7800005883A00003E0662
:2001E000E03FFF1500002A06E0BFFF17E0FFFB171885883A1080000310803FCC100D883A8A
:2001E800014000C4E13FFE17002026001080005C10803FCC10000526010000B4210F8D043F
:2001F0000021C7800005883A00002B060180040401400104E13FFE17002026001080005C59
:2001F80010803FCC10000526010000B4210F93040021C7800005883A00001F06E13FFE170C
:2002000000205D401080005C10803FCC10000526010000B4210F99040021C7800005883AAE
:2002080000001506E0BFFF1710800044E0BFFF15E0FFFF17E080021718BFD31601801004BC
:2002100001400104E13FFE17002026001080005C10803FCC10000526010000B4210F9F04C3
:200218000021C7800005883A0000030601003E8400224BC000800044E037883ADFC001174A
:20022000DF000017DEC00204F800283ADEFFFB04DFC00415DF000315DF000304E13FFD1527
:2002280001003E8400224BC0E0BFFE04100D883A01400104E13FFD1700202B40E0BFFFC5DE
:20023000E0BFFFC310000426E0BFFE171080008C10000126E03FFFC5E0BFFFC3E037883AEF
:20023800DFC00117DF000017DEC00204F800283ADEFFF804DFC00715DF000615DF00060484
:20024000E13FFD152805883A3007883AE1FFFA15E0BFFC051805883AE0BFFB05E0BFFD17C4
:20024800108003041007883AE0BFFC0318800035E0BFFD17108004041007883A00802404EF
:2002500018800035E13FFD1700205D401080005C10803FCC10000526010000B4210FA50480
:200258000021C7800005883A00005806E0BFFD17108003041007883AE0BFFB03188000356C
:20026000E0BFFD17108004041007883A0080040418800035E13FFD1700205D401080005C28
:2002680010803FCC10000526010000B4210FAB040021C7800005883A00004406E0BFFD17E0
:20027000108003041007883AE0BFFC031080005410803FCC18800035E0BFFD1710800404C9
:200278001007883A0080240418800035E13FFD1700205D401080005C10803FCC1000052665
:20028000010000B4210FB1040021C7800005883A00002E06E03FFF1500002106E0BFFD1754
:20028800108004041009883AE0BFFF1710800044E0C002171880021E00800A040000010654
:200290000080080420800035E13FFD17002088C01080005C10803FCC10000526010000B4DA
:20029800210FB7040021C7800005883A00001706E0BFFD171080030410800037E0BFFE154C
:2002A000E0BFFF17E0FFFA171885883AE0FFFE1710C00005E0BFFF1710800044E0BFFF1535
:2002A800E0FFFF17E080021718BFDC16E0BFFD17108004041007883A00801004188000357A
:2002B00001003E8400224BC000800044E037883ADFC00117DF000017DEC00204F800283AF6
:2002B800DEFFFA04DFC00515DF000415DF000404E13FFF152805883A3009883A3807883A94
:2002C000E0BFFE052005883AE0BFFD051805883AE0BFFC05E0BFFF17108003041007883A50
:2002C800E0BFFE0318800035E0BFFF17108004041007883A0080240418800035E13FFF17D8
:2002D00000205D401080005C10803FCC10000526010000B4210FA5040021C7800005883AD2
:2002D80000001E06E0BFFF17108003041007883AE0BFFD0318800035E0BFFF171080040404
:2002E0001007883A0080040418800035E13FFF1700205D401080005C10803FCC100005261B
:2002E800010000B4210FAB040021C7800005883A00000A06E0BFFC0310000726E0BFFF1793
:2002F000108004041007883A008010041880003501003E8400224BC000800044E037883A8F
:2002F800DFC00117DF000017DEC00204F800283ADEFFF804DFC00715DF000615DF000604C4
:20030000E13FFD152805883AE1BFFB15E1FFFA15E0BFFC05E0BFFD17108003041007883A5A
:20030800E0BFFC031080005410803FCC18800035E0BFFD17108004041007883A008024041F
:2003100018800035E13FFD1700205D401080005C10803FCC10000526010000B4210FB104B3
:200318000021C7800005883A00002E06E03FFF1500002106E0BFFD17108004041009883AE2
:20032000E0BFFF1710800044E0FFFA171880021E00800A0400000106008008042080003596
:20032800E13FFD17002088C01080005C10803FCC10000526010000B4210FB7040021C7804F
:200330000005883A00001706E0BFFD171080030410800037E0BFFE15E0BFFF17E0FFFB1760
:200338001885883AE0FFFE1710C00005E0BFFF1710800044E0BFFF15E0FFFF17E0BFFA179C
:2003400018BFDC16E0BFFD17108004041007883A008010041880003501003E8400224BC05F
:2003480000800044E037883ADFC00117DF000017DEC00204F800283ADEFFF804DFC00715B9
:20035000DF000615DF000604E13FFD152805883A3007883AE1FFFA15E0BFFC051805883A22
:20035800E0BFFB0DE0BFFB0B1004D23AE0BFFEC5E0BFFB0BE0BFFE85E0BFFC03100D883A73
:20036000014000C4E13FFD17002026001080005C10803FCC100002260005883A00007D06F5
:200368000180240401400104E13FFD17002026001080005C10803FCC100002260005883A86
:2003700000007406E13FFD1700205D401080005C10803FCC10000526010000B4210FBD049A
:200378000021C7800005883A00006A06E0BFFEC3100D883A014000C4E13FFD170020260008
:200380001080005C10803FCC100002260005883A000060060180040401400104E13FFD176E
:20038800002026001080005C10803FCC100002260005883A00005706E13FFD1700205D403B
:200390001080005C10803FCC10000526010000B4210FC3040021C7800005883A00004D065D
:20039800E0BFFE83100D883A014000C4E13FFD17002026001080005C10803FCC1000022608
:2003A0000005883A000043060180040401400104E13FFD1700202600E13FFD1700205D40F3
:2003A8001080005C10803FCC10000526010000B4210FC9040021C7800005883A0000350657
:2003B000E03FFF1500002406E0BFFF17E0FFFA171885883A1080000310803FCC100D883ABF
:2003B800014000C4E13FFD17002026001080005C10803FCC100002260005883A00002506F5
:2003C0000180040401400104E13FFD17002026001080005C10803FCC100002260005883A4E
:2003C80000001C06E13FFD1700205D401080005C10803FCC10000526010000B4210FCF0488
:2003D0000021C7800005883A00001206E0BFFF1710800044E0BFFF15E0FFFF17E08002171C
:2003D80018BFD9160180100401400104E13FFD17002026001080005C10803FCC100002262B
:2003E0000005883A0000030601003E8400224BC000800044E037883ADFC00117DF000017F3
:2003E800DEC00204F800283ADEFFF704DFC00815DF000715DF000704E13FFC152805883A5E
:2003F0003007883AE1FFF915E0BFFB051805883AE0BFFA0DE0BFFA0B1004D23AE0BFFEC5BC
:2003F800E0BFFA0BE0BFFE85E0BFFB03100D883A014000C4E13FFC17002026001080005C39
:2004000010803FCC100002260005883A00009E060180240401400104E13FFC170020260036
:200408001080005C10803FCC100002260005883A00009506E13FFC1700205D401080005CD7
:2004100010803FCC10000526010000B4210FD5040021C7800005883A00008B06E0BFFEC318
:20041800100D883A014000C4E13FFC17002026001080005C10803FCC100002260005883AE1
:20042000000081060180040401400104E13FFC17002026001080005C10803FCC100002262E
:200428000005883A00007806E13FFC1700205D401080005C10803FCC10000526010000B408
:20043000210FDB040021C7800005883A00006E06E0BFFE83100D883A014000C4E13FFC17C3
:20043800002026001080005C10803FCC100002260005883A0000640601800404014001049F
:20044000E13FFC17002026001080005C10803FCC100002260005883A00005B06E13FFC1709
:2004480000205D401080005C10803FCC10000526010000B4210FE1040021C7800005883A1C
:2004500000005106E0BFFB031080005410803FCC100D883A014000C4E13FFC1700202600BC
:200458001080005C10803FCC100002260005883A000045060180240401400104E13FFC1791
:20046000002026001080005C10803FCC100002260005883A00003C06E13FFC1700205D407E
:200468001080005C10803FCC10000526010000B4210FE7040021C7800005883A000032067B
:20047000E03FFF1500002106E0BFFC17108004041009883AE0BFFF1710800044E0C00217AB
:200478001880021E00800A04000001060080080420800035E13FFC17002088C01080005C2F
:2004800010803FCC10000526010000B4210FED040021C7800005883A00001B06E0BFFC17AE
:200488001080030410800037E0BFFD15E0BFFF17E0FFF9171885883AE0FFFD1710C000057A
:20049000E0BFFF1710800044E0BFFF15E0FFFF17E080021718BFDC160180100401400104FE
:20049800E13FFC17002026001080005C10803FCC100002260005883A0000030601003E8479
:2004A00000224BC000800044E037883ADFC00117DF000017DEC00204F800283ADEFFC60420
:2004A800DFC03915DF003815DF00380400800044E0BFFE15E03FC8C5E03FC905E03FC945C4
:2004B000E03FC985E0BFC9C400C03104180D883A000B883A1009883A0021B540E03FFFC516
:2004B800E03FC885E03FFF850080013410844004E0BFFD15010000B4210FF3040021C78093
:2004C000018000B431A1A8040140BEF4297C2004E13FFD1700215A00018000440140028472
:2004C800E13FFD17002174C00100190400224BC0E0BFFE1710003D26E03FFAC5E0BFFAC4DE
:2004D00001C00044100D883A0140184401000044002167C00100190400224BC000002F067E
:2004D800E0BFFAC310C03FCCE0BFC8C4180F883A100D883A014018C401000044002167C030
:2004E0000100190400224BC000001806E0BFFFC3E085883A10BFC8C3E0BFC885E0BFFFC364
:2004E800E085883A103FC8C5E0BFC88310803FCC1080201C10BFE00410801FA01000081E68
:2004F000E0BFC88310803FCC1080201C10BFE00410000326E0BFC8841009883A0021BB000D
:2004F800E0BFFFC310800044E0BFFFC5E0BFFAC3E0FFFFC310803FCC18BFE436E0BFFAC466
:2005000001C00044100D883A0140184401000044002167C00100190400224BC0E0BFFAC326
:2005080010803FCC103FCE1EE03FFE15E03FFAC5E0BFFAC401C00044100D883A014018440F
:2005100001000044002167C00100190400224BC000003806E0BFFAC310C03FCCE0BFC8C453
:20051800180F883A100D883A014018C401000044002167C0E0BFFB15E17FFB17010000B47B
:20052000210FFB040021BB00E0BFFB1710000326010000B4210FFF040021BB0001001904E4
:2005280000224BC0E03FFFC500001606E0BFFFC3E085883A10BFC8C3E0BFC885E0BFFFC358
:20053000E085883A103FC8C5E0BFC88310803FCC1080201C10BFE00410801F981000031E2C
:2005380000800044E0BFFF8500000306E0BFC8841009883A0021BB00E0BFFFC310800044DC
:20054000E0BFFFC5E0BFFAC3E0FFFFC310803FCC18BFE636E0BFFAC401C00044100D883A6C
:200548000140184401000044002167C00100190400224BC0E0BFFAC310803FCC103FC51EF5
:200550000100190400224BC0E0BFFC1710BFFFC4E0BFFC15E0BFFC1710000426E0BFFF833F
:200558001080005C10803FCC103FFA1EE0BFFC171000031E010000B4211006040021BB00E6
:200560000100190400224BC00005883AE037883ADFC00117DF000017DEC00204F800283AE5
:20056800DEFFF904DFC00615DF000515DF000504E13FFE15E17FFD15E1BFFC15E0FFFC17B6
:200570001805883A100490BA10C5883A100B883AE13FFD170021A94010BFFFC4E0BFFF1537
:20057800E0BFFF17D8800015E1FFFC17E1BFFD17E17FFE17010000B421100A040021BB0055
:20058000E0BFFE17108002040007883A10C00035E0BFFE17108004041007883A008000445A
:2005880018800035E0BFFE17E0FFFF1718C03FCC10C00035E0BFFE17108001041007883AD3
:20059000E0BFFF171004D23A10803FCC18800035E0BFFE17108002041007883A0080200447
:20059800188000350001883AE037883ADFC00117DF000017DEC00204F800283ADEFFF80456
:2005A000DFC00715DF000615DF000604E13FFD15E17FFC15E1BFFB15E1FFFA15E03FFF1528
:2005A800E03FFE15E0BFFD171080005810000D1EE03FFF1501400044E13FFC17002182009D
:2005B000E0BFFE15E0BFFF1710C00044E0FFFF15E0FFFB171885883AE0FFFE1710C00005A4
:2005B80000001406E0BFFD171000121EE03FFF1500000C06E0FFFB17E0BFFF171885883ACC
:2005C0001080000310803FCC000D883A100B883AE13FFC1700218B80E0BFFF171080004459
:2005C800E0BFFF15E0FFFF17E0BFFA1718BFF136E03FFF150005883AE037883ADFC0011733
:2005D000DF000017DEC00204F800283ADEFFFB04DFC00415DF000315DF000304E13FFF1572
:2005D800E17FFE15E1BFFD15E1FFFD17E1BFFE17E17FFF17010000B4211022040021BB00D7
:2005E000E0BFFF17108003041007883AE0BFFE171085883A1009883AE0BFFD171080004C61
:2005E8002085883A18800035E0BFFF17108004041007883A00802404188000350001883A61
:2005F000E0BFFF1710800404108000371080008C103FFB1EE0BFFF1710800404108000373F
:2005F8001080200C10000526010000B4211036040021C7800080004400000406010000B4E1
:20060000211038040021C7800005883AE037883ADFC00117DF000017DEC00204F800283ABA
:20060800DEFFFC04DFC00315DF000215DF000204E13FFF15E17FFE15E1BFFE17E17FFF1791
:20061000010000B421103A040021BB00E0BFFE1710000626E0BFFF17108004041007883AB4
:2006180000801A041880003500000506E0BFFF17108004041007883A0080080418800035CD
:200620000001883AE0BFFF1710800404108000371080008C103FFB1EE0BFFF171080030413
:2006280010800037E037883ADFC00117DF000017DEC00204F800283ADEFFFB04DFC00415D3
:20063000DF000315DF000304E13FFF152805883AE1BFFD15E0BFFE05E0BFFE03E1FFFD17C2
:20063800100D883AE17FFF17010000B4211043040021BB00E0BFFF17108003041007883A1F
:20064000E0BFFE0318800035E0BFFD1710000626E0BFFF17108004041007883A0080140480
:200648001880003500000506E0BFFF17108004041007883A00800404188000350001883A7C
:20065000E0BFFF1710800404108000371080008C103FFB1EE0BFFF171080040410800037DE
:200658001080200C10000526010000B4211036040021C7800080004400000406010000B480
:20066000211038040021C7800005883AE037883ADFC00117DF000017DEC00204F800283A5A
:2006680020001A16000F883A2800020E014BC83A39C0005C200D883A00C000442900092E23
:200670000080080400C000440000010610001226294B883A10BFFFC418C7883A293FFB3689
:2006780018000D260005883A31400236314DC83A10C4B03A1806D07A280AD07A183FFA1E16
:20068000380001260085C83AF800283A0109C83A01C00044003FE4060005883A003FF806DC
:2006880020001916000F883A2005883A2800010E014BC83A00C000442900092E01800804D5
:2006900000C000440000010630000D26294B883A31BFFFC418C7883A293FFB361800082673
:200698001806D07A114001361145C83A280AD07A183FFB1E380001260085C83AF800283ACE
:2006A0002005883A003FFB060109C83A01C00044003FE506200D883A2900152E280014162B
:2006A8000080080400C000440000020610000E2628000516294B883A10BFFFC418C7883AAA
:2006B000293FFA36180008260005883A31400236314DC83A10C4B03A1806D07A280AD07ABA
:2006B800183FFA1EF800283A0005883AF800283A00C00044003FF4062005883A2900132EAA
:2006C000280012160180080400C000440000020630000C2628000516294B883A31BFFFC4A3
:2006C80018C7883A293FFA36180006261806D07A114001361145C83A280AD07A183FFB1E61
:2006D000F800283A2005883AF800283A00C00044003FF6062005883A218D883A2007883AF0
:2006D8001980011EF800283A18C00044197FFFC5003FFB06DEFFFD04DFC00015D980011537
:2006E000D9C002152180021700C000B418C88D0430C00115280D883A21400217D9C0010496
:2006E8000021D100DFC00017DEC00304F800283ADEFFFC04DFC00015D9400115D98002151B
:2006F000D9C00315008000B410D11217008000B410888D0419400217D98001042880011510
:2006F800200B883A19000217002221C0DFC00017DEC00404F800283ADEFFFD04DC0000153B
:200700002021883A2809883ADFC00215DC4001152823883A0021C8808140021700C000B437
:2007080018C88D0428C00115100F883A880D883A8009883A0022234010FFFFE01800091E2D
:2007100081400217018000B401C0004428800117319051048009883A103EE83A10BFFFE076
:200718000085C83ADFC00217DC400117DC000017DEC00304F800283A008000B4200B883A3B
:20072000111112170021BF812005883A10C000071800021E1105C83AF800283A10800044D1
:20072800003FFA06DEFFFB04DC800315DC400215DC000115DFC004152025883A2823883A31
:20073000D98000053821883A040007160005883ADFC00417DC800317DC400217DC000117EF
:20073800DEC00504F800283A8880011701C00044D80D883A880B883A9009883A103EE83AB4
:20074000843FFFC4103FF02600BFFFC4003FF006DEFFE604DF001815DDC01715DD801615D3
:20074800DD001415DCC01315DC801215DC401115DC001015DFC01915DD4015152021883AEA
:20075000282F883AD98005153839883A002D883AD80002150027883A0029883A0025883A31
:200758000023883AD8000115D80000150005883A00000206114000E028003F1ED8C0051788
:200760001900000318C00044D8C0051521803FCC3180201C31BFE00430001426114000A0C7
:200768002800231E114000C8283FF21E100004261080006010001A1E00800084003FEF06CE
:20077000318009603000FE1EB8800117D900080501C00044D9800804B80B883A8009883A93
:20077800103EE83A10001D2605BFFFC4B005883ADFC01917DF001817DDC01717DD8016176E
:20078000DD401517DD001417DCC01317DC801217DC401117DC001017DEC01A04F800283A60
:2007880030800C201000EF1E30800958103FE626217FF40429403FCC288002A810000B1E55
:2007900088BFFFE01000071E880490BA1463883A8822907A2C63883A003FD706B580004445
:20079800003FC6060023883A003FFA0630800BA01000E11E00800084213FF40421003FCC20
:2007A000214002A82800091E917FFFE02800051E900A90BA2CA5883A9024907A24A5883AE5
:2007A800003FB6060025883A003FFC0630801B201000CF1E90BFFFE010000F1ED8000015CE
:2007B00030801BE01000CE1E30801C081000171E308018E01000A31E308019081000081EE9
:2007B80031801620303FA12600800044D8800215050004040000C30604800044003FF006FE
:2007C000308019201000021E31801A60303F9726E0800104D88004159800BA26E54000171F
:2007C800A800221604C000440000BA0630801D601000B41E30801E20103FED1E31801CE065
:2007D000303F8A26E5400017E0800104D8800315A809883A0021C880888FC83A1039883AD9
:2007D80001C0080E01800804B80B883A8009883AD9C004150021CA40103F9B1ED9C0041734
:2007E000B1ED883AB8800117E00F883AA80D883AB80B883A8009883A103EE83A103F921EE2
:2007E800B72D883ADF000317003F7406056BC83A04C0004400C00044DF000804E00D883A81
:2007F000A8002E1EE185C83AD88003159085C83A0080090EE085883AD9001004E100042E48
:2007F800E700004401000C04E13FFFC5E0BFFA1EE185C83AD8800315D88003171897883A4F
:20080000D88000178AEBC83A1000352618000A2600800B44D88007C5B880011701C00044F7
:20080800D98007C4B80B883A8009883A103EE83A103F6D1EB58000440540070EA80F883A46
:2008100001800C04B80B883A8009883A0021CA40103F651EB56D883AD8800317B72D883A6E
:20081800172BC83AAF05883AB707C83A00803216DF000417182D883A003F3C06A809883A89
:20082000A00B883AD8C006150021A9401009883AA00B883AD8800315002232C0A8ABC83A6D
:20082800A8800288D9000317D8C00617D98008041000051EAD400C04E7000044E57FFFC56E
:20083000202B883A003FBE06D880021710000226AD400DC4003FF806AD4015C4003FF606F3
:200838000540090EA80F883A01800804B80B883A8009883AD8C006150021CA40103F3A1EE9
:20084000D8C00617B56D883A183FD32600800B44D88007C5B880011701C00044D98007C443
:20084800B80B883A8009883A103EE83A103F2E1EB5800044003FC806E0BFFFC301C00044C9
:20085000D98007C4D88007C5B8800117B80B883A8009883AE73FFFC4103EE83A103FC12691
:20085800003F2106888000901000081E8D7FFFC4A80F883A01800804B80B883A8009883AA7
:200860000021CA40103F181EB56D883AE080001701C00044D9800804D8800805B88001174E
:20086800B80B883A8009883AE5400104103EE83A103F0D1EB5800044A839883A003EEF063D
:20087000D8000215D8000115D800001504C000440500028404BFFFC4047FFFC4008000447B
:20087800003EE60600800044D8800015003EF20600800044D8800115008000C4003EDF0636
:2008800005000204E0800104D8800415E54000170027883A0007883A003F6706008000B4A9
:20088800300F883A280D883A200B883A111112170021D1012880000B1080020C1000252681
:200890002880008FDEFFFB04DCC00315DC800215DC400115DC000015DFC004152027883A2A
:200898002821883A3025883A3823883A1000100E8080000B108010148080000D00BFFFC485
:2008A00000000D0688810050880F883A1000011E01C100048140008F900D883A9809883A6C
:2008A80000222DC000BFF20E88A3C83A90A5883A047FF4160005883ADFC00417DCC003177A
:2008B000DC800217DC400117DC000017DEC00504F800283A00BFFFC4F800283ADEFFFE04D0
:2008B800DC000015008000B42021883A2809883A300B883A380D883ADFC001151011D51541
:2008C0000022528010FFFFD81800041E00C000B418D1D5171800012680C00015DFC0011770
:2008C800DC000017DEC00204F800283A0005883A2000072620C0004C2008D07A180001262E
:2008D0001145883A294B883A203FFA1EF800283AF800283ADEFFFC04DF000315DF000304D5
:2008D800E13FFF15E17FFE15E1BFFD15E0FFFE17E0BFFF1718800C2600000806E0FFFF1731
:2008E00018800104E0BFFF15E0BFFE1711000104E13FFE1518C0001710C00015E0FFFE17E3
:2008E800E0BFFD1718BFF51E0001883AE037883ADF000017DEC00104F800283ADEFFFE04E5
:2008F000DFC00115DF000015D839883A018000B431911C04014000B429506304010000B4CB
:2008F80021111C0400223540018000B431808904014000B429400804010000B42100080438
:2009000000223540018000B431906304014000B4294F4804010000B4210F48040022354062
:200908000022C9C00022E9400001883AE037883ADFC00117DF000017DEC00204F800283A92
:20091000DEFFFD04DFC00215DF000115DF0001040009883A002266000001883A002269C0F9
:20091800018000B431905204014000B429505204010000B421105204002322000022DCC070
:20092000010000B4210B8C040023A3C0D0A0C517D0E0C617D120C717200D883A180B883A44
:200928001009883A002129C0E0BFFF15010000440022BC00E13FFF170023A500DEFFFD0418
:20093000DFC00215DF000115DF000104E13FFF15E13FFF170022A2C0E037883ADFC001179A
:20093800DF000017DEC00204F800283ADEFFFE04DFC00115DF000015D839883AD0A00717C2
:2009400010000326D0A00717103EE83A00000106D0A0C404E037883ADFC00117DF0000179B
:20094800DEC00204F800283ADEFFF904DFC00615DF000515DF000504E13FFD15E17FFC1579
:20095000E1BFFB15E0BFFD1710000916E0FFFD171805883A1085883A10C5883A100490BAD7
:2009580000C000B418D0B10410C5883A000001060005883AE0BFFF15E0BFFF17100021264A
:20096000E0BFFF1710800217108000CC10001826E0BFFF171080001710800617100014261C
:20096800E0BFFF171080001710800617E0FFFB17180D883AE17FFC17E13FFF17103EE83A75
:20097000E0BFFE15E0BFFE171000070E00224EC01007883AE0BFFE170085C83A18800015EB
:2009780000BFFFC400000C06E0BFFE1700000A0600224EC01007883A00800344188000158A
:200980000000040600224EC01007883A008014441880001500BFFFC4E037883ADFC00117AD
:20098800DF000017DEC00204F800283ADEFFFD04DFC00215DF000115DF000104E13FFF15BA
:20099000D1600404E13FFF170022D240E037883ADFC00117DF000017DEC00204F800283A20
:20099800DEFFFD04DFC00215DF000115DF000104E13FFF1500237300008000441001703A89
:2009A0000001883A0001883AE037883ADFC00117DF000017DEC00204F800283ADEFFFE044E
:2009A800DFC00115DF000015D839883A01C0FA0401800044000B883A0100013421041804EB
:2009B00000229A80010000B421109C04002262C00001883A0001883AE037883ADFC001170B
:2009B800DF000017DEC00204F800283ADEFFFA04DFC00515DF000415DF000404E13FFE1585
:2009C000E17FFD15E1BFFC15E0BFFE1710800017E0BFFF15E0BFFF1710C00A04E0BFFE179F
:2009C80010800217100F883AE1BFFC17E17FFD171809883A00227AC0E037883ADFC001178F
:2009D000DF000017DEC00204F800283ADEFFFA04DFC00515DF000415DF000404E13FFE156D
:2009D800E17FFD15E1BFFC15E0BFFE1710800017E0BFFF15E0BFFF1710C00A04E0BFFE1787
:2009E00010800217100F883AE1BFFC17E17FFD171809883A00228980E037883ADFC00117A8
:2009E800DF000017DEC00204F800283ADEFFF704DF000815DF000804E13FFB15E17FFA159D
:2009F000E1BFF915E1FFF815E0BFFB1710800017E0BFFE15E0BFFA17E0BFFF15E0BFF91730
:2009F800E0FFFA171885883AE0BFFD1500001206E0BFFE1710800037E0BFFC15E0BFFC17EA
:200A000010A0000C10000626E0BFFF1710C00044E0FFFF15E0FFFC1710C00005000006064F
:200A0800E0FFFF17E0BFFA171880071EE0BFF8171090000C1000061EE0FFFF17E0BFFD1736
:200A100018BFEB36000003060001883A000001060001883AE0FFFF17E0BFFA1718800426D1
:200A1800E0FFFF17E0BFFA171885C83A00000606E0BFF8171090000C1000022600BFFD44DC
:200A20000000010600BFFEC4E037883ADF000017DEC00104F800283ADEFFF904DF0006158E
:200A2800DF000604E13FFD15E17FFC15E1BFFB15E1FFFA15E0BFFD1710800017E0BFFF1576
:200A3000E0BFFB17E0FFFC171885883AE0BFFE1500000E06E0BFFF171080010410800037CD
:200A380010BFFFEC10000926E0FFFF17E0BFFC1711000044E13FFC151080000310803FCC4A
:200A40001080201C10BFE00418800035E0FFFC17E0BFFE1718BFEF36E0BFFB17E037883A1E
:200A4800DF000017DEC00104F800283ADEFFFA04DFC00515DF000415DF000404E13FFC15F7
:200A50000007883AE0BFFC1710C00035E0BFFC1710800104108000370005303AE0BFFD15D8
:200A5800E0FFFD1700BFFF841884703A1001703AE0BFFD17E0BFFF1500236280E0BFFF1728
:200A6000E0BFFE15E0BFFE171001703A0001883A0001883AE037883ADFC00117DF00001749
:200A6800DEC00204F800283ADEFFF804DFC00715DF000615DF000604E13FFE15E17FFD1554
:200A7000E1BFFC15E1FFFB15E0BFFB17E0BFFF15D0A0C9171000031EE0BFFF17D0A0C915DD
:200A7800000001060001883AE0BFFE171080010400C001C410C00035D8000015E1FFFE17DF
:200A8000018000B4318A4B04E17FFC17E13FFD170022EB400001883AE037883ADFC00117D0
:200A8800DF000017DEC00204F800283ADEFFFA04DFC00515DF000415DF000404E13FFC15B6
:200A900000800244E0BFFE15014003F429509004E13FFE17002232C0100B883A0100BEF4B0
:200A9800213C20040021A940100B883A01200034213FFFC40021A940100B883AE13FFC1744
:200AA0000021A940E0BFFD15E0BFFD1710002A26E03FFF150000170600A0003410BFFFC4B2
:200AA80010BFFFC4103FFE1E014003F429509004E13FFE17002232C0100B883A0100BEF413
:200AB000213C20040021A940100B883A01200034213FFFC40021A9401007883AE0BFFC17B1
:200AB80010C5C83AE0BFFC15E0BFFF1710800044E0BFFF15E0FFFF17E0BFFD1718BFE616E0
:200AC000014003F429509004E13FFE17002232C0100B883A0100BEF4213C20040021A9406D
:200AC800E17FFC171009883A002232C010BFFFC4103FFE1E00000D06014003F42950900457
:200AD000E13FFE17002232C0100B883A0100BEF4213C20040021A940E17FFC171009883A54
:200AD800002232C010BFFFC400BFFE160005883AE037883ADFC00117DF000017DEC0020494
:200AE000F800283ADEFFFE04DFC00115DF000015D839883AD0A0071710000326D0A00717EC
:200AE800103EE83A00000106D0A0C404E037883ADFC00117DF000017DEC00204F800283ABB
:200AF000DEFFFB04DFC00415DF000315DF000304E13FFD15E0BFFD1710000916E0FFFD176E
:200AF8001805883A1085883A10C5883A100490BA00C000B418D0B10410C5883A0000010604
:200B00000005883AE0BFFF15E0BFFF1710001926E0BFFF1710800017108004171000062614
:200B0800E0BFFF171080001710800417E13FFF17103EE83A000001060005883AE0BFFE15A0
:200B1000E13FFD1700235140E0BFFE171000070E0022B8401007883AE0BFFE170085C83AD6
:200B18001880001500BFFFC4000007060005883A000005060022B8401007883A00801444E4
:200B20001880001500BFFFC4E037883ADFC00117DF000017DEC00204F800283ADEFFFF0422
:200B2800DF000015D839883A0001883AE037883ADF000017DEC00104F800283ADEFFFC047A
:200B3000DF000315DF000304E13FFF15E17FFE15E1BFFD15E0BFFD17E037883ADF000017ED
:200B3800DEC00104F800283ADEFFFE04DFC00115DF000015D839883AD0A00717100003267E
:200B4000D0A00717103EE83A00000106D0A0C404E037883ADFC00117DF000017DEC002042E
:200B4800F800283ADEFFFA04DFC00515DF000415DF000404E13FFD15E17FFC15E0BFFD176A
:200B500010000326E0BFFD17108002171000061E0022CE801007883A0080058418800015BD
:200B580000BFFA8400001406E0BFFD17E0FFFC17E0FFFF15E0BFFE15E0BFFE17E0FFFF1733
:200B600010C00115E0BFFF1710C00017E0BFFE1710C00015E0BFFF1710800017E0FFFE170A
:200B680010C00115E0BFFF17E0FFFE1710C000150001883A0005883AE037883ADFC00117DF
:200B7000DF000017DEC00204F800283ADEFFFD04DFC00215DF000115DF000104008000B4D0
:200B7800108F4704E0BFFF1500000606E0BFFF1710800017103EE83AE0BFFF1710BFFF0461
:200B8000E0BFFF15E0FFFF17008000B4108F480418BFF62E0001883A0001883AE037883A34
:200B8800DFC00117DF000017DEC00204F800283ADEFFFD04DFC00215DF000115DF00010435
:200B9000008000B4108F4704E0BFFF1500000606E0BFFF1710800017103EE83AE0BFFF17E7
:200B980010BFFF04E0BFFF15E0FFFF17008000B4108F480418BFF62E0001883A0001883A23
:200BA000E037883ADFC00117DF000017DEC00204F800283ADEFFFF04DF000015D839883A0A
:200BA8000001883AE037883ADF000017DEC00104F800283ADEFFF904DFC00615DF00051511
:200BB000DF000504E13FFF15E17FFE15E1BFFD15E1FFFC15E0800217D8800015E1FFFC171A
:200BB800E1BFFD17E17FFE17E13FFF1700230640E037883ADFC00117DF000017DEC002042B
:200BC000F800283ADEFFF904DF000615DF000604E13FFB15E17FFA15E0BFFA17E0BFFF15FC
:200BC8000005303AE0BFFE15E0FFFE1700BFFF841884703A1001703AE0BFFE17E0BFFD1550
:200BD00000C00044E0BFFF171884983A1007883AD0A0C8171884B03AD0A0C815D0A0C81794
:200BD800100170FAE0BFFD17E0BFFC15E0BFFC171001703A0001883A0005883AE037883A4F
:200BE000DF000017DEC00104F800283ADEFFF904DF000615DF000604E13FFB15E17FFA15A6
:200BE800E0BFFA17E0BFFF150005303AE0BFFE15E0FFFE1700BFFF841884703A1001703A32
:200BF000E0BFFE17E0BFFD1500C00044E0BFFF171884983A0084303A1007883AD0A0C81743
:200BF8001884703AD0A0C815D0A0C817100170FAE0BFFD17E0BFFC15E0BFFC171001703AB0
:200C00000001883A0005883AE037883ADF000017DEC00104F800283ADEFFFC04DF000315AA
:200C0800DF000304E13FFE15E17FFD15000530FAE0BFFF1500C00044E0BFFD171884983A3A
:200C10001007883AE0BFFF171884703A1004C03A10803FCCE037883ADF000017DEC00104D5
:200C1800F800283ADEFFF504DFC00A15DF000915DF000904E13FFA15E17FF915E1BFF8159B
:200C2000E1FFF71500BFFA84E0BFFF15E0BFF917E0BFFE15E0BFFE17108008081000251ED0
:200C28000005303AE0BFFC15E0FFFC1700BFFF841884703A1001703AE0BFFC17E0BFFD15F5
:200C3000E0BFFE17100890FAE0FFF817008000B42085883A10D1DD15E0BFFE17100890FA9C
:200C3800E0FFF717008000B42085883A10D1DE15E0BFF81710000526E0BFFE17100B883AC6
:200C4000E13FFA170022F04000000406E0BFFE17100B883AE13FFA170022F8C0E0BFFF15B8
:200C4800E0BFFD17E0BFFB15E0BFFB171001703A0001883AE0BFFF17E037883ADFC00117B6
:200C5000DF000017DEC00204F800283ADEFFF904DFC00615DF000515DF000504E13FFE15E8
:200C5800E17FFD15E1BFFC15E1FFFB15E1BFFB17E17FFC17E13FFD1700233B40E0BFFF15BF
:200C6000E0BFFF1710002016E0FFFF171805883A1085883A10C5883A100490BA00C000B4E5
:200C680010C7883A18D0B117E0BFFE1710C00015E0FFFF171805883A1085883A10C5883AC8
:200C7000100490BA00C000B410C7883A18D0B217E0BFFE1710C00115E0FFFF171805883ADA
:200C78001085883A10C5883A100490BA00C000B410C7883A18D0B317E0BFFE1710C00215B6
:200C8000E13FFF17002351400001883AE037883ADFC00117DF000017DEC00204F800283A23
:200C8800DEFFFB04DFC00415DF000315DF000304E13FFF15E17FFE15E1BFFD1501C07FC47E
:200C900001800044E17FFF17010000B42110B404002314C001C07FC4000D883AE17FFE172C
:200C9800010000B42110B104002314C001C07FC401800044E17FFD17010000B42110B704CC
:200CA000002314C00001883AE037883ADFC00117DF000017DEC00204F800283ADEFFFE0417
:200CA800DFC00115DF000015D839883AD0A0071710000326D0A00717103EE83A00000106E4
:200CB000D0A0C404E037883ADFC00117DF000017DEC00204F800283ADEFFFD04DF00021594
:200CB800DF000204E13FFE15E0BFFE171080021710D00034E0BFFE1710C00215E03FFF15C5
:200CC00000002306E0FFFF171805883A1085883A10C5883A100490BA00C000B410C7883ABE
:200CC80018D0B117E0BFFE17108000171880151EE0FFFF171805883A1085883A10C5883A74
:200CD000100490BA00C000B410C7883A1890B31710000C0EE0FFFF171805883A1085883AD2
:200CD80010C5883A100490BA00C000B418D0B10410C5883AE0FFFE171880022600BFFCC42C
:200CE00000000806E0BFFF1710800044E0BFFF15D0A006171007883AE0BFFF1718BFD92EB1
:200CE8000005883AE037883ADF000017DEC00104F800283ADEFFF604DFC00915DF000815C9
:200CF000DF000804E13FFA15E17FF915E1BFF81500BFFFC4E0BFFE1500BFFB44E0BFFD15CC
:200CF800E03FFC15D1600404E13FFA1700237540E0BFFF15E0BFFF171000051EE13FFA179E
:200D000000237E40E0BFFF1500800044E0BFFC15E0BFFF1710002C26E13FFF1700238EC00D
:200D0800E0BFFE15E0BFFE171000030EE0BFFE17E0BFFD1500002606E0FFFE171805883AE0
:200D10001085883A10C5883A100490BA00C000B418D0B10410C5883AE0BFFB15E0FFF91731
:200D18000090003410BFFFC41886703AE0BFFB1710C00215E0BFFC171000051EE13FFB176E
:200D200000232D80E0BFFD15E0BFFD1710001016E0BFFF171080031710000826E0BFFF17F7
:200D280010800317E1FFF817E1BFF917E17FFA17E13FFB17103EE83A000001060005883A81
:200D3000E0BFFD150000020600BFFB44E0BFFD15E0BFFD171000090EE13FFE170023514078
:200D3800002329C01007883AE0BFFD170085C83A1880001500BFFFC400000106E0BFFE1792
:200D4000E037883ADFC00117DF000017DEC00204F800283ADEFFFE04DF000115DF00010457
:200D4800E13FFF15E0BFFF17108000D01000101EE0FFFF171805883A1085883A10C5883A42
:200D5000100490BA00C000B410C7883A1810B315E0FFFF171805883A1085883A10C5883A66
:200D5800100490BA00C000B410C7883A1810B1150001883AE037883ADF000017DEC00104ED
:200D6000F800283ADEFFFA04DF000515DF000504E13FFB150005303AE0BFFC15E0FFFC171C
:200D680000BFFF841884703A1001703AE0BFFC17E0BFFF15E0BFFB17E0BFFD15E0BFFD17AE
:200D700010800017E0FFFD1718C0011710C00115E0BFFD1710800117E0FFFD1718C00017B6
:200D780010C00015E0BFFD17E0FFFD1710C00115E0BFFD17E0FFFD1710C000150001883A9C
:200D8000E0BFFF17E0BFFE15E0BFFE171001703A0001883A0001883AE037883ADF00001728
:200D8800DEC00104F800283ADEFFFB04DFC00415DF000315DF000304D0A00917E0BFFF159A
:200D9000D0A0CA1710800044D0A0CA1500002E06E0BFFF1710800017E0BFFE15E0BFFF17D8
:200D98001080040310803FCC10000426D0A0CA171000021EE0BFFF1710000405E0BFFF17CB
:200DA00010800217D0E0CA1718801D36E0BFFF171080040310803FCC1000191EE0BFFF172B
:200DA80010800317E0FFFF1718C005171809883A103EE83AE0BFFD15E0BFFD171000031EB0
:200DB000E13FFF170023584000000D06E0BFFF1710C00217E0BFFD171887883AE0BFFF17B8
:200DB80010C00215E0BFFF1710C00217D0A0CA171880032EE0BFFF1700C0004410C00405EA
:200DC000E0BFFE17E0BFFF15E0FFFF17D0A0090418BFCF1E0001883A0001883AE037883A17
:200DC800DFC00117DF000017DEC00204F800283ADEFFFF04DF000015D839883A000170FA4E
:200DD0000001883AE037883ADF000017DEC00104F800283ADEFFFA04DFC00515DF000415E8
:200DD800DF000404E13FFD15E17FFC15E0BFFC1710800017E0BFFF15E13FFD170021C880C8
:200DE00010800044E0BFFE1500000D06E0BFFF1710800217E0FFFE17180D883AE17FFD17AD
:200DE8001009883A0023A7001000021EE0BFFF1700000706E0BFFF1710800017E0BFFF1545
:200DF000E0FFFF17E0BFFC1718BFF01E0005883AE037883ADFC00117DF000017DEC0020466
:200DF800F800283ADEFFFB04DFC00415DF000315DF000304E13FFD15D0A00217E0BFFF15A2
:200E000000003106E0BFFF17108002171009883A0021C880E0BFFE15E0BFFF1710C00217A9
:200E0800E0BFFE1710BFFFC41885883A1080000310803FCC1080201C10BFE00410800BD805
:200E10001000031EE0BFFE1710BFFFC4E0BFFE15E0BFFE17E0FFFD171885883A1080000300
:200E180010803FCC1080201C10BFE00410800BE01000081EE0BFFE17E0FFFD171885883AE9
:200E20001080000310803FCC1080201C10BFE00410000A1EE0BFFF1710800217E0FFFE177B
:200E2800180D883AE17FFD171009883A0023A7001000021EE0BFFF1700000706E0BFFF1703
:200E300010800017E0BFFF15E0FFFF17D0A0020418BFCC1E0005883AE037883ADFC00117C5
:200E3800DF000017DEC00204F800283ADEFFFC04DF000315DF000304E13FFD1500BFFA04FD
:200E4000E0BFFE15E03FFF1500001D06E0FFFF171805883A1085883A10C5883A100490BA6A
:200E480000C000B410C7883A1890B1171000111EE0FFFF171805883A1085883A10C5883A0C
:200E5000100490BAE13FFD1700C000B410C7883A1910B115D0E00617E0BFFF171880020ECA
:200E5800E0BFFF17D0A00615E0BFFF17E0BFFE1500000706E0BFFF1710800044E0BFFF158A
:200E6000E0BFFF1710800810103FE01E0001883AE0BFFE17E037883ADF000017DEC00104DF
:200E6800F800283ADEFFFE04DF000115DF000104E13FFF15E0BFFF1710BFFE8410C0042822
:200E70001800191E100690BA008000B41885883A108E76171000683A00023A1800023A189B
:200E780000023A2800023A2800023A2800023A1800023A2000023A2800023A1800023A1872
:200E800000023A2800023A1800023A2000023A2800023A2800023A18008000440000030655
:200E88000005883A000001060005883AE037883ADF000017DEC00104F800283A200B883AFC
:200E9000000F883A000D883A0009883A0023AA01DEFFFE04000B883ADC000015DFC00115B7
:200E98002021883A0023BBC08009883A0023CE800007883A30C0021E0005883AF800283AE3
:200EA00020C5883A18C0004428CF883A1080000339FFFFC311FFF72611C5C83AF800283ACA
:200EA800008000B410911117DEFFF904DC00001514000D17DD400515DD000415DCC0031549
:200EB000DC800215DFC00615DC4001152025883A2827883A302B883A3829883A8000081EC5
:200EB80014000E0400C0003414000D1518C000041800032600C0003418C0001710C03015B5
:200EC000844001178880081010000A1E00BFFFC4DFC00617DD400517DD000417DCC00317B9
:200EC800DC800217DC400117DC000017DEC00704F800283A90001926808022171000091E2C
:200ED0000080003410800004103FF0260100420400000000103FED261000401510004115E1
:200ED80080802215880890BA00C000441C46983A1109883A25400015114040179480009807
:200EE00028CAB03A11404015250020159000031E1100411720C6B03A10C0411588800044BA
:200EE8008C400084882290BA808001150005883A8461883A84C00015003FD506DEFFF604D8
:200EF000008000B4DD80061515911117DD400515DD000415DFC00915DF000815DDC00715C9
:200EF800DCC00315DC800215DC400115DC000015202B883A2829883AB4400D1788000726A3
:200F00008C0001178CC0221784BFFFC4802090BA9C2F883A8C21883A90000C0EDFC0091753
:200F0800DF000817DDC00717DD800617DD400517DD000417DCC00317DC800217DC40011706
:200F1000DC000017DEC00A04F800283AA00007269800041E94BFFFC4BDFFFF04843FFF04A6
:200F1800003FED06B8C01F171D3FFA1E8900011780C00117213FFFC424800F1E8C80011556
:200F2000183FF4268F0001179800052600800044148C983A990040173108703A2000081E87
:200F2800183EE83A89000117B0C00D17273FD21E88FFE826003FD00680000115003FF00631
:200F300099404117B93FFF17314C703A3000041E200B883AA809883A183EE83A003FF106DB
:200F3800183EE83A003FEF06DEFFFD04DF000215DF000204E13FFE150001883AE0BFFE178A
:200F4000E0BFFF15E0BFFF1710000226002AF07000000106002AF0B00001883A003FFF068F
:200F48004332490A726F632073692065616E652064656C62000D20214332490A726F632097
:200F500073692065746F6E20616E652064656C6263757320737365636C6C75660D20217931
:200F5800000000004332490A726F632069202065696420736C626173202164650000000D26
:200F60004332490A726F632073692065696166202064656C64206F74626173692021656C27
:200F68000000000D495F434F575F43326574697272726520305B726F00000D5D495F434FCA
:200F7000575F43326574697272726520315B726F00000D5D495F434F575F43326574697229
:200F780072726520325B726F00000D5D495F434F575F43326574697272726520335B726F27
:200F800000000D5D495F434F575F43326574697272726520345B726F00000D5D495F434F51
:200F8800575F43326574697272726520355B726F00000D5D495F434F575F4332657469720D
:200F900072726520365B726F00000D5D495F434F575F43326574697272726520375B726F07
:200F980000000D5D495F434F575F43326574697272726520385B726F00000D5D495F434F35
:200FA000575F43326574697272726520395B726F00000D5D495F434F525F43322064616560
:200FA8006F7272655D325B720000000D495F434F525F4332206461656F7272655D355B7247
:200FB0000000000D495F434F525F4332206461656F7272655D385B720000000D495F434F09
:200FB800525F4332206461656F72726530315B7200000D5D495F434F5F4C43327469725759
:200FC000726520655B726F72000D5D30495F434F5F4C433274697257726520655B726F7263
:200FC800000D5D31495F434F5F4C433274697257726520655B726F72000D5D32495F434F8E
:200FD0005F4C433274697257726520655B726F72000D5D33495F434F5F4C433264616552BE
:200FD80072726520305B726F00000D5D495F434F5F4C43326461655272726520315B726F0E
:200FE00000000D5D495F434F5F4C43326461655272726520325B726F00000D5D495F434F36
:200FE8005F4C43326461655272726520335B726F00000D5D495F434F5F4C43326461655235
:200FF00072726520345B726F00000D5D444F4320534920454154532044455452204E492099
:200FF8005F433249545345540020432E706D65746F727265203D2072000000006F727245F6
:20100000657220726E6964617266206773206D6F6F736E650000007276616C5369742065DE
:20100800756F656D00002E74696E49206C6169746E697A69492020676120433278302074AA
:20101000202C78256977090A632068746B636F6C6570732030206465207825786E61090A44
:20101800435320647073204C206465657825783061090A207020646E6373657220656C61C7
:20102000782578300000000A617453202020747220433249302074612C78257877090A2005
:201028002068746972646461207373657825783061090A207220646E206461657825783071
:2010300061090A207020646E6373657220656C61782578300000000A414F4E0900004B43E7
:201038004B43410900000000616552203249206474612043257830200A202C787469770939
:20104000616C206878307473000A7825616552203249206474612043257830200A202C78DB
:201048007469770961642068302061742C7825786977090A6C206874307473610A78257886
:20105000000000000000000A7665642F6F696E2F79735F736D65747361746A5F61755F67E2
:20105800000074727665642F6F696E2F79735F736D65747361746A5F61755F670000747218
:201060007665642F6C756E2F0000006C000000000000000000000000000000000000000018
:20106800000000000000000000000000000000000000000000000000000000000000000068
:20107000000000000000000000000000000000000000000000000000000000000000000060
:20107800000000000000000000000000000000000000000000000000000000000000000058
:20108000000000000000000000000000000000000000000000000000000000000000000050
:20108800000000000000000000000000000000000000000000000000000000000000000048
:20109000000000000000000000000000000000000000000000000000000000000000000040
:20109800000000000000000000000000000000000000000000000000000000000000000038
:2010A000000000000000000000000000000000000000000000000000000000000000000030
:2010A800000000000000000000000000000000000000000000000000000000000000000028
:2010B000000000000000000000000000000000000000000000000000000000000000000020
:2010B800000000000000000000000000000000000000000000000000000000000000000018
:2010C000000000000000000000000000000000000000000000000000000000000000000010
:2010C800000000000000000000000000000000000000000000000000000000000000000008
:2010D000000000000000000000000000000000000000000000000000000000000000000000
:2010D8000000000000000000000000000000000000000000000000000000000000000000F8
:2010E0000000000000000000000000000000000000000000000000000000000000000000F0
:2010E8000000000000000000000000000000000000000000000000000000000000000000E8
:2010F0000000000000000000000000000000000000000000000000000000000000000000E0
:2010F8000000000000000000000000000000000000000000000000000000000000000000D8
:201100000000000000000000000000000000000000000000000000000000000000000000CF
:201108000000000000000000000000000000000000000000000000000000000000000000C7
:201110000000000000000000000000000000000000000000000000000000000000000000BF
:201118000000000000000000000000000000000000000000000242500002425800024260E3
:201120000000000000000000000000000000000000000000000000000000000000000000AF
:201128000000000000000000000000000000000000000000000000000000000000000000A7
:2011300000000000000000000000000000000000000000000000000000000000000000009F
:20113800000000000000000000000000000000000000000000000000000000000000000097
:2011400000000000000000000000000000000000000000000000000000000000000000008F
:20114800000000000000000000000000000000000000000000000004000000000001000A78
:20115000000000000002000A000000000000000000000000000000000000000000024164CC
:201158000000000000000000000226EC0002274C000000000000000000000000000410B822
:2011600000024454000244540002418000000000000000000000000000022CBC000000008E
:2011680000000000000000000002429C00000000000000000002429C0000000000000000A7
:201170000002429C000000000000000000000000000000000000000000000000000000007F
:20117800000000000000000000000000000000000000000000000000000000000000000057
:2011800000000000000000000000000000000000000000000000000000000000000000004F
:20118800000000000000000000000000000000000000000000000000000000000000000047
:2011900000000000000000000000000000000000000000000000000000000000000000003F
:20119800000000000000000000000000000000000000000000000000000000000000000037
:2011A00000000000000000000000000000000000000000000000000000000000000000002F
:2011A800000000000000000000000000000000000000000000000000000000000000000027
:2011B00000000000000000000000000000000000000000000000000000000000000000001F
:2011B800000000000000000000000000000000000000000000000000000000000000000017
:2011C00000000000000000000000000000000000000000000000000000000000000000000F
:2011C80000000000000000000002418C0002418C0002444C0002444C0002429C0002429C85
:2011D000FFFFFFFF00000000FFFFFFFF0002446800024468000000000000000000000000AB
:2011D8000000000000000000000000000000000000000000000000000000000000000000F7
:2011E0000000000000000000000000000000000000000000000000000000000000000000EF
:2011E8000000000000000000000000000000000000000000000000000000000000000000E7
:2011F0000000000000000000000000000000000000000000000000000000000000000000DF
:00000001FF
